:020000040002F8
:1060000098D10020C1630200C9630200CB63020083
:10601000CD630200CF630200D163020000000000E4
:10602000000000000000000000000000D363020038
:10603000D563020000000000D7630200D9630200AC
:10604000C9650200DB63020015680200DB63020021
:10605000DB630200DB630200DB630200DB63020040
:10606000DB630200DB630200E1670200DB63020026
:10607000DB630200DB630200DB630200DB63020020
:10608000DB630200D9650200DB630200DB63020010
:10609000FD650200DB63020001660200DB630200B3
:1060A000DB630200DB630200DB630200DB630200F0
:1060B000DB630200DB630200000000000000000060
:1060C000DB630200DB630200DB630200DB630200D0
:1060D000DB630200DB630200DB6302002168020075
:1060E000DB630200DB630200DB63020000000000F0
:1060F00000000000DB63020000000000DB63020020
:10610000000000000000000000000000000000008F
:10611000000000000000000000000000000000007F
:10612000000000000000000000000000000000006F
:10613000000000000000000000000000000000005F
:10614000000000000000000000000000000000004F
:10615000000000000000000000000000000000003F
:10616000000000000000000000000000000000002F
:10617000000000000000000000000000000000001F
:10618000000000000000000000000000000000000F
:1061900000000000000000000000000000000000FF
:1061A00000000000000000000000000000000000EF
:1061B00000000000000000000000000000000000DF
:1061C00000000000000000000000000000000000CF
:1061D00000000000000000000000000000000000BF
:1061E00000000000000000000000000000000000AF
:1061F000000000000000000000000000000000009F
:10620000DFF80CD000F058F900480047652903007A
:1062100098D1002030B450E8012F93B2C4892344B0
:106220008489A34228BF1B1B0489A34202BFBFF37A
:106230002F8F002007E0C3EA020340E80134002C5E
:10624000E9D14FF001000A6030BC704750E8012FDF
:10625000C2EA024240E801210029F7D1704730B478
:1062600050E8022F1FFAA2F3C488A34202BFBFF373
:106270002F8F00200DE0C48923448489A34228BFC6
:106280001B1BC2EA034340E80234002CE8D14FF064
:1062900001000A6030BC704750E8022FC2EA224277
:1062A00040E802210029F7D17047034653E8022F46
:1062B000D988B2EB324F4FF0000017BF92B241EADB
:1062C000014142EA014104E05A68B2EB324F08BF93
:1062D000012043E80212002AE8D1704730B4044696
:1062E00054E8000F0D4644E80053002BF8D1156028
:1062F00030BC704730B4044654E8000F40EA010552
:1063000044E80053002BF7D1156030BC704730B41F
:10631000044654E8000F00EA010544E80053002B4E
:10632000F7D1156030BC704730B4044654E8000F14
:1063300080EA010544E80053002BF7D1156030BC1A
:10634000704730B4044654E8000F00EB010544E800
:106350000053002BF7D1156030BC704730B40446B1
:1063600054E8000FA0EB010544E80053002BF7D1DF
:10637000156030BC704770B404464FF0000054E81C
:10638000006F0D68AE4207BF44E80023012044E8D7
:1063900000630E60002B1CBF0020F0E770BC70474C
:1063A00030B4044654E8000F88422CBF451A054615
:1063B00044E80053002BF5D1156030BC7047000055
:1063C0000648804706480047FEE7FEE7FEE7FEE78F
:1063D000FEE7FEE7FEE7FEE7FEE7FEE705660200F2
:1063E0000162020040EA01039B0703D009E008C9EB
:1063F000121F08C0042AFAD203E011F8013B00F88A
:10640000013B521EF9D27047D2B201E000F8012BD5
:10641000491EFBD270470022F6E710B513460A4624
:1064200004461946FFF7F0FF204610BD421C10F845
:10643000011B0029FBD1801A704730B504460020AB
:10644000034600E05B1C934203D2E05CCD5C401B42
:10645000F8D030BD2DE9F05F0546002092469B46FE
:1064600088460646814640241BE02846414647466A
:10647000224600F042F853465A46C01A914110D3C2
:1064800011461846224600F029F82D1A67EB01083C
:106490004F4622460120002100F020F817EB0009AA
:1064A0004E41201EA4F10104DFDC484631462A4655
:1064B0004346BDE8F09F0000064C074D06E0E0684B
:1064C00040F0010394E8070098471034AC42F6D33B
:1064D000FFF79AFEE072030000730300202A04DB3A
:1064E000203A00FA02F1002070479140C2F12003E7
:1064F00020FA03F3194390407047202A04DB203A26
:1065000021FA02F00021704721FA02F3D040C2F1D3
:106510002002914008431946704770B58C1810F856
:10652000015B15F0070301D110F8013B2A1106D1D8
:1065300010F8012B03E010F8016B01F8016B5B1EF2
:10654000F9D12B0705D40023521E0DD401F8013BCD
:10655000FAE710F8013BCB1A921C03E013F8015B39
:1065600001F8015B521EF9D5A142D8D3002070BDBD
:1065700000F01F02012191404009800000F1E0205D
:10658000C0F88012704700F01F02012191404009BD
:10659000800000F1E020C0F88012704700F01F0278
:1065A000012191404009800000F1E020C0F8001175
:1065B000704700F01F02012191404009800000F166
:1065C000E020C0F80012704710B50DF0B7FEBDE82E
:1065D00010400DF039BE000007480021C0F84011FE
:1065E000C0F84411C0F84811C0F84C11C0F80011AF
:1065F000C0F804110FF048BD001001400FF0B6BC08
:106600000DF096BC30B54FF0805000228300D0F8DA
:106610003011C3F80C21C3F81021624B1A60624B91
:106620001B68624C2360604B1B1D1B68241D23608C
:106630005D4B08331B68241D23605B4B0C331B68C8
:10664000241D2360584B10331B68241D2360564BB8
:1066500014331B68241D2360534B18331B68534CA1
:1066600020342360504B1C331B68241D23604E4B89
:1066700020331B68241D23604B4B24331B68241DCF
:106680002360494B28331B68241D2360464B2C3361
:106690001B68241D2360444B30331B68434C40343B
:1066A0002360414B34331B68241D23603E4B383339
:1066B0001B68241D23603C4B3C331B68241D236056
:1066C000394B40331B68241D23600124082902D163
:1066D000D0F8343113B1082904D006E0354B3449E1
:1066E000196005E0D0F8343113B1082904D006E070
:1066F000314BFB21196005E0D0F8343113B1082982
:1067000008D00EE090F858322C48016863F303017A
:10671000016002E0D0F834311BB929494FF4007010
:10672000086028480168C90702D06FF001010160C4
:106730002548016841F470010160BFF34F8FBFF33A
:106740006F8F4FF01021D1F80002002803DBD1F841
:106750000402002822DA1D4B1C601D480468002C2E
:10676000FCD01224C1F800420568002DFCD0C1F80D
:10677000044201680029FCD01A6001680029FCD09D
:10678000BFF34F8F10487C380168124A01F4E06172
:1067900011430160BFF34F8F00BFFDE70F490E4863
:1067A000086030BD380500400404001020C50040DA
:1067B000488103008C56004018F50040E40E00406C
:1067C000409602400004004088ED00E004E50140EE
:1067D00000E401400400FA050090D003189700205F
:1067E0000A48D0F8441101290ED1D0F804138903C6
:1067F0000AD50021C0F844110121C1600448C279C2
:106800000AB10BF0AFBD01727047000000A000405C
:10681000A4960020014800680047000074950020FD
:106820002DE9F05F5448D0F8045300242E464FF071
:10683000010913E096FAA6F0B0FA80F7B80000F567
:10684000807080460DF082FC28B140460DF086FC39
:1068500009FA07F0044309FA07F08643002EE9D14C
:106860000CF00CFF002869D0444AD078F0BBA0029D
:1068700064D5434940F2A978C1F80080081D036837
:1068800013F0FF0C02D0036803EA0C0C40F2AA7A62
:10689000C1F800A0036813F0FF0301D0066833407D
:1068A00040F2AB7BC1F800B0066816F0FF0601D0DD
:1068B00007683E4040F2AC770F60076817EA0C07A4
:1068C00009D0D2F810C04CEA070CC2F810C0C1F8C9
:1068D00000800760076840F2AD770F6007681F40CF
:1068E00009D0136943EA0743136100E026E0C1F8C9
:1068F00000A00760036840F2AE730B60036833408A
:106900000BD0DE0701D044F40004DE0601D544F0CC
:106910000104C1F800B003600068106930F0011193
:1069200002D005F080710C4310F0011F06D06905FC
:1069300004D520F0011044F480641061C4F3C05603
:1069400024F400044F46DFF83C8009E094FAA4F0F8
:10695000B0FA80F558F82500804707FA05F084431F
:10696000002CF3D10FF08AFF002E03D0BDE8F05FBA
:106970000BF062B9BDE8F09F007002404495002022
:1069800000780240686D0300C11700EBD161074B2E
:106990004A1153F8222021F01F01411A012088409A
:1069A000024201D0012070470020704700E100E062
:1069B0000FB41CB50246002007AC00290BD0491EBD
:1069C000CDE90021054B6A462146069800F02AF8D9
:1069D000009A002111701CBC5DF814FB876E020048
:1069E00002E008C8121F08C1002AFAD17047704798
:1069F000002001E001C1121F002AFBD170470000F6
:106A00000121202803DA81400548014003E04028A5
:106A100002DA2038814009B1012070470020704718
:106A2000FC06FFBD2DE9FF4F8DB00F460546002641
:106A300006E025280BD0DDE90F1290476D1C761C6F
:106A400028780028F5D111B03046BDE8F08F002439
:106A5000A246A1460122EC4900E0044315F8013F9B
:106A6000203B02FA03F00842F7D128782A2810D0F8
:106A70006FF02F022878A0F13001092914D80AEB11
:106A80008A0102EB410144F0020400EB010A6D1C93
:106A9000F0E701CF5FEA000A03D544F40054CAF1DD
:106AA000000A44F002046D1C28782E2817D115F82E
:106AB000010F44F004042A280ED06FF02F0228782A
:106AC000A0F1300109290AD809EB890102EB410143
:106AD00000EB01096D1CF2E757F8049B6D1C287848
:106AE0006C280FD006DC4C2817D068280DD06A28F7
:106AF00014D104E0742810D07A280FD10DE044F4AA
:106B000000140AE044F4801401E044F4401469786D
:106B1000814202D104F580146D1C6D1C2A786E2A06
:106B20001FD00CDC632A31D004DC002A8BD0582A19
:106B300011D1A3E0642A68D0692A0CD165E0732AD8
:106B40002ED004DC6F2A73D0702A04D19BE0752A02
:106B50006FD0782A6ED01046DDE90F129047761C70
:106B600050E1C4F30250022806D0032809D00428BB
:106B700001CF09D0066045E101CFF117C0E90061FE
:106B800040E101CF06803DE106703BE117F8040BC0
:106B90008DF8000000208DF80100EB46012003E095
:106BA00057F804BB4FF0FF3061074FF0000102D4EB
:106BB0000DE008F10101884649450FDA8045F8DB10
:106BC0001BF808100029F4D108E008F101018846FB
:106BD0008142FADB1BF808100029F6D1DDE90F230A
:106BE000AAEB08008146214600F036F9304400EB5C
:106BF000080604E0DDE90F121BF8010B9047B8F11D
:106C00000108F7D221464846F7E00A21C4F30253AF
:106C10004FF0000B0891022B04D001CFC117032BBA
:106C200009D00AE0FF1D27F00707F7E8020108E096
:106C300032E01FE020E000B2C117042B01D140B2C6
:106C4000C117031E71F1000307DA4FF0000CD0EBFF
:106C50000C006CEB01012D2302E0230504D52B234E
:106C60008DF82430012303E0E30701D02023F7E768
:106C7000984658E00A2110E010210EE010204FF055
:106C8000000B08900CE010214FF0000B44F00404BE
:106C90004FF00809089103E008214FF0000B08911C
:106CA000C4F30253022B04D001CF0021032B06D0E2
:106CB00006E0FF1D27F00707F7E8020103E080B2B6
:106CC000042B00D1C0B24FF0000823072BD5702A47
:106CD00007D0DDF820C08CF0100C5CEA0B0C05D05E
:106CE0000EE040238DF82430012308E050EA010330
:106CF00006D030238DF824308DF8252002239846C5
:106D0000DDF820C08CF0080C5CEA0B0C0BD150EACB
:106D1000010301D1630706D530238DF824304FF0ED
:106D20000108A9F10109582A04D038A20B9208AA37
:106D30000A920BE03AA2F9E75B46089AFFF78AFB52
:106D40000B9B9B5C0A9A521E0A92137050EA010236
:106D5000F2D10A98ADEB000000F1200B600702D5DC
:106D600024F4803401E04FF00109D94502DDA9EB9C
:106D70000B0000E0002000EB0B0141440890AAEB5F
:106D8000010AE00306D4DDE90F232146504600F056
:106D900063F806444FF0000908E009A911F809005A
:106DA000DDE90F12904709F10109761CC145F4DBBA
:106DB000E0030CD5DDE90F232146504600F04CF8E6
:106DC000064404E0DDE90F1230209047761C089954
:106DD000481E08900029F5DC08E00A980A99007816
:106DE000491C0A91DDE90F129047761CBBF10001A6
:106DF000ABF1010BF1DC21465046DDE90F2300F039
:106E000019F806446D1C1BE60928010030313233A5
:106E100034353637383961626364656600000000D6
:106E200030313233343536373839414243444546C0
:106E3000000000002DE9F041044600251E461746DB
:106E4000880404D405E039462020B0476D1C641E38
:106E5000F9D52846BDE8F0812DE9F041044600252A
:106E60001E469046C80301D5302700E0202788043D
:106E700004D505E041463846B0476D1C641EF9D57F
:106E80002846BDE8F0814A68002A06D00A68531CEB
:106E90000B6010704868401E486070471CB50E4873
:106EA0000D4C90F830002834C00020700020607035
:106EB000A07020460BF03CFCE0700420ADF804000C
:106EC00000220094114668460EF0A6FB002802D06E
:106ED000002000F027F81CBDA496002038B5044619
:106EE00000208DF80000684600F018FF0A48844230
:106EF0000CD0BFF34F8F09480168094A01F4E061E3
:106F000011430160BFF34F8F00BFFDE79DF8000004
:106F100000F028FF38BD0000FECADDBA0CED00E02D
:106F20000400FA050EB500210091CDE901106A4672
:106F300044F20100FFF7D2FF0EBD00002DE9F84F2B
:106F40002C4C8146924660880E4681424FD80027DD
:106F50004FF6FF788DF80070684600F0DFFE22786B
:106F60006078A188884201DA401C00E00020C0B2AD
:106F7000904204D19DF8000000F0F4FE35E0657801
:106F80006078884201DA401C00E0002060702078C0
:106F90006278824201D3101A02E0081A1044401CA1
:106FA000E18880B2884200D9E0809DF8000000F0BE
:106FB000D9FE454519D0E068B9F1000F40F835A079
:106FC0000DD066B161882069324605FB0100494653
:106FD000FFF708FAE06800EBC500868002E000EBEE
:106FE000C50087800020BDE8F88F0420FBE709205A
:106FF000F9E700007C95002010B50F4C03E0401C21
:1070000000E000202070A068002814D1207861786A
:10701000814210D0227861882069E36802FB010078
:1070200003EBC20153F83220898890472078A18869
:107030008842E6DAE3E710BD7C95002030B5CB004E
:1070400008339DB293074FF0000401D0072030BDF4
:10705000054BDA602A441A615C701C705880998074
:10706000DC80002030BD00007C95002008B50020A9
:107070008DF80000684600F051FE05498868421C02
:1070800001D0401C88609DF8000000F06BFE08BD38
:107090007C950020074801784078064A884292880B
:1070A00001D3401A02E0511A0844401C101A80B261
:1070B000704700007C95002008B500208DF8000086
:1070C000684600F02BFE0548816809B1491E8160C1
:1070D0009DF8000000F046FE08BD00007C950020F1
:1070E00070B505460548046905E02946204608F0C4
:1070F0007DFC20680468002CF7D170BDA4950020A9
:1071000070B5094804690CE0267A002505E0294697
:10711000204600F091FC6D1CEDB2B542F7D320681B
:107120000468002CF0D170BDA495002070B50A4809
:1071300004690DE0267A002506E000222946204653
:1071400000F0B8FC6D1CEDB2B542F6D320680468BF
:10715000002CEFD170BD0000A495002070B5084947
:10716000054606200C6907E02946204608F03EFC4B
:10717000062803D121680C68002CF5D170BD0000F1
:10718000A49500207CB504680B461546217F083481
:10719000C90705D0A16929B1206AA0B311207CBD1F
:1071A00008207CBDE16EA9420CD31846A16EFFF702
:1071B00019F9E06E401BE066A06E65672844A06682
:1071C00000207CBDC4E906320AF0C4F80546104828
:1071D0000069CDE90004E26E6AB1A16EA069FFF713
:1071E00001F9E16EE069401AE061A0690844A0611C
:1071F0000020C4E91B016946284600F05BFA00281C
:10720000DFD192207CBDFFE7C4E90832F9E7000036
:10721000686E03003EB50D4601681446097F11F003
:10722000010F09D008F0E2FE00210095CDE90141EF
:10723000694600F065FA3EBD08203EBDF8B504463B
:1072400000250FE0002705E0007800F047FA08B1BC
:107250001120F8BD3946781CC7B2304600F09CF8C2
:107260000028F1D12946681CC5B2204600F0A6F8D6
:107270000600E7D100250DE0002703E00078214655
:1072800000F031FA3946781CC7B2304600F084F875
:107290000028F3D12946681CC5B2204600F08EF8BC
:1072A0000600E9D1074800E0086801680029FBD121
:1072B000046005486946406900906068026820469D
:1072C0009047F8BDB4950020186E03002DE9F04FEB
:1072D00087B04FF000081D46934689460446DDF806
:1072E00040A04646CDF80C8000E0761C6068012383
:1072F00000224768214603A8B8470028F5D1404638
:107300008DF800800027B84601903BE060680123BB
:107310006A46D0F804C0214601A8E047606801230E
:1073200005AAD0F804C0214601A8E0479DF8141032
:1073300049451AD1D84514D19DF80000CAF800007B
:1073400005F8010B6A1C85F8009060689DF8003014
:107350002146456801A89B1EA847002007B0BDE84C
:10736000F08F08F1010000F0FF0860689DF8003020
:107370000022D0F804C0214601A89B1EE0479DF8DA
:1073800000000744B742C1D30520E7E70148006980
:1073900070470000A495002042788A4201D800205E
:1073A0007047827810440844704742788A4201D876
:1073B000002070478278104408447047027A8A425D
:1073C00001D80020704701EB4101093008447047A3
:1073D000027A8A4201D80020704701EB410109304E
:1073E0000844704702484078002800D001207047C8
:1073F000A495002070B50D460978062401260F29B2
:107400003DD2DFE801F03C080C0E3C1A2B3C3C3C22
:107410003C0C1E20290003200FF08CF92FE00024E3
:107420002DE028480BF03FFB0028F8D026480660E6
:10743000BFF36F8FBFF34F8FF1E700F065F804469D
:107440001DE0002005E02148006810F0010F03D086
:1074500002200FF06FF9E2E70120FAE7E87803284D
:107460000DD01849091D0A6832B100230B60496824
:107470009047040005D000E00E240CF021FA2046CD
:1074800070BD0FF04FF928B1A8780028F7D10CF0A3
:10749000DAF9F4E70E480078082810D10C48001DEE
:1074A000007800070BD10A480830007810F0F00F80
:1074B00005D107480C30007810F0F00FDFD00CF049
:1074C000BFF9DCE7D49500205C700240380400402E
:1074D000E00F00F0024A0146D2E900021047000026
:1074E00060A7002070B50C4605460CF0A3F9A84231
:1074F00001D0102070BD0348D4E90012C0E9021287
:10750000002070BDD09500207FB5054605208DF880
:10751000000006240DF101000CF0AAF90FF002F9A9
:107520002949002008609DF8010010F01F0006D0D6
:1075300001280FD0022826D0032833D106E069465F
:1075400028460EF0D3F9044606282AD16846FFF7EC
:1075500005FE25E09DF8050003A900F089FA050065
:1075600008D06A469DF80C1000F062FA044606281E
:1075700002D016E0102415E06A469DF80C1028464B
:107580000EF028FB0CE09DF80500010705D06946C8
:1075900000F05CF80446062803D168460EF030FA85
:1075A000044624B10CF08CF904B0204670BD0FF0F5
:1075B000B9F830B10CF03EF90028F5D10CF043F9E0
:1075C000F2E70CF03DF9EFE7D89500207FB5C088D1
:1075D00014460E46A04201D2054600E015468442FC
:1075E00007D280200BF052FFB4FBF0F100FB1140FA
:1075F00080B100200096CDE9015000208DF80C00EC
:1076000003A800F08BFB6946802000F079F80400A5
:1076100002D006E00120EDE705498020FFF762FF78
:1076200004469DF80C0000F09DFB04B0204670BDA0
:10763000986E030008B140210160014870470000C6
:10764000B4A700200BF0B8BD0BF0D2BD10B50C46AE
:10765000010600F00F02092A09D200F00BF80068B9
:1076600028B141680A682146BDE810401047102043
:1076700010BD0000010600F00F0001D5034901E034
:107680000249483101EBC0007047000018A70020F4
:1076900010B5044600F00F00082805D220460BF074
:1076A00067FE20460BF022FF2046BDE810400BF09D
:1076B0006DBE000070B50C4605460BF0A9FE18B172
:1076C00005480078022801D0082070BD21462846D0
:1076D000BDE870400BF09EBEA495002010B5FFF7EA
:1076E000C9FF006810BD10B50C46FFF7C3FF04606A
:1076F0001CB161680968416010BD0021FBE7000012
:1077000070B50C4605460BF083FE18B105480078AD
:10771000022801D0082070BD21462846BDE87040EF
:107720000BF00ABFA49500202DE9FE430546007822
:10773000224E002748B3DFF8888001A9D8F81C0042
:107740000BF085F904001ED0286820608DF80870C1
:1077500002A800F0E3FA7088F168401A401CE0804B
:10776000002106F10C000BF0B2F9A0809DF8080092
:1077700000F0F8FA01A9D8F81C000BF089F90146CD
:1077800028460FF019FABDE8FE838DF800706846B0
:1077900000F0C4FAF06808B96888708007480121D1
:1077A0000C300BF083F99DF8000000F0DBFA0121AA
:1077B00028460FF001FAF068E5E70000A4950020E4
:1077C000186E030070B501786B4C0546092970D01E
:1077D00008DC092977D2DFE801F067779E808AA765
:1077E000AE76C30064488129007817D00DDC0A29E1
:1077F00071D00F2970D0802965D1052803D00628C3
:107800003CD007285FD1022081E082291BD0832948
:1078100036D0842957D103283AD03FE05748FFF7A4
:1078200059FE5648FFF75CFC0D200FF0D3F9606954
:1078300010B95348007A00B101200CF045F8FFF769
:107840005FFC012063E0FFF75BFC0CF069F80020AF
:107850000EF0DAFA4948401CFFF742FC4748401C4A
:10786000FFF738FE0E200FF0B5F9207800F03CFA53
:10787000002828D0BDE870400BF00EBB082046E081
:10788000032820D10CF06AF800281CD004203EE028
:107890000CF064F810B104200EF0B6FA0CF0ECF81D
:1078A000002810D0062032E000200FF093F9646920
:1078B00007E057E007E02946204608F097F82068DF
:1078C0004468002CF7D170BDFFF71AFC02200EF0BF
:1078D0009BFA012005E047E02BE005200EF094FA2A
:1078E00003200FF077F92846FFF7F4FD3FE003206F
:1078F0000FF070F92148801CFFF7ECFD1F48801C39
:10790000FFF7EEFB207806287FF47DAF0720BDE867
:1079100070400EF079BA03200EF076FA02200FF0D4
:1079200059F92846FFF7DCFB2846BDE87040FFF711
:10793000D1BD0F2019E0A878FFF79CFED0E9002305
:107940002946104698470028BDD0A8780107BAD02C
:1079500000F00F010829B6D2BDE870400BF0A2BDBF
:10796000082002E0092000E00A200FF033F9284641
:10797000BDE87040FFF7B4BBA4950020296E03005A
:10798000A8A70020FFF7D0BE2DE9FC41234C00251D
:107990000095234EA0684FF4006728B9211DF069B7
:1079A0000BF06BF8A060C0B1818869B1C188B942A1
:1079B00000D3C580C188ADF80210C188491CC180C0
:1079C0008188491E818022E0FFF7FCFE1349F0699F
:1079D000091D0BF047F8A5601CE0E06800281AD0EC
:1079E0008DF8045001A800F099F96088B84200D3DE
:1079F00065806088ADF80200401C60800748012166
:107A00000C300BF069F89DF8040000F0ABF9684603
:107A1000FFF7D8FE0120BDE8FC810000A4950020FE
:107A2000186E03000148FFF77FBE0000186E0300C8
:107A3000114642681368184770B5044640680D4601
:107A4000C2680AB12046904720462946FFF7B6FC97
:107A500005464678002408E021462846FFF79CFCAE
:107A600000780BF063FC641CE4B2B442F4D370BD44
:107A70002DE9F04180460E480E46056914E02F7A44
:107A800000240DE021462846FFF798FC0178414587
:107A900004D106B134702846BDE8F081641CE4B21C
:107AA000BC42EFD328680568002DE8D10020F3E739
:107AB000A495002070B50446406815460E468368BC
:107AC0001BB120469847062803D1204631460DB108
:107AD000072070BDFFF772FC05464678002408E0D9
:107AE00021462846FFF758FC0078FFF7D1FD641CBB
:107AF000E4B2B442F4D3002070BD034600205A68BB
:107B00001269002A01D01846104770472DE9F84342
:107B10002E4C054608234FF484722B49E0690AF085
:107B200083FF10B10320BDE8F88329480BF02EFE37
:107B30000028F8D127490870086148614821264883
:107B4000FEF769FC244848214830FEF764FC2248CF
:107B500078307DB195E80E00183080E80E000020E6
:107B60000BF018FA18B1852801D0FFF7DBF91B4D8F
:107B7000002611E004F130010EC9EDE7002703E013
:107B800000782946FFF7AFFD3946781CC7B240465A
:107B9000FFF702FC0028F3D13146701CC6B228461C
:107BA000FFF70CFC5FEA0008E8D1606800906946C6
:107BB000284607F01BFF040003D00BF04FFF2046C0
:107BC000B1E70020AFE7000010A60020186E030008
:107BD00085790200A495002018A70020D86E030024
:107BE00030B1012807D0022808D10548FFF79CBD15
:107BF00003480838FAE70248001FF7E7704700001B
:107C0000406E030010B50BF00DFE10B10BF000FE3E
:107C100008B1082010BD04480BF030FA08B1FFF796
:107C200081F9002010BD0000446E030070B54FF0D4
:107C3000805086B0D0F8A810D0F8A40089B241F4E2
:107C4000404300900BA20D2101A8FEF7B1FE0C4E9F
:107C500040F21A3001AD3080002404E0285D06EBCC
:107C60004401641C48802846FEF7E0FBA042F5D89A
:107C700006B070BD2530345825303858000000005B
:107C80000CA80020074803E0016811F0010F07D09D
:107C90000168C1F340010029F6D00348FFF744BD55
:107CA00070470000380400401D6E0300034808B50B
:107CB000806800906846FFF737FD08BD186E030026
:107CC000074918B1052803D300207047086870479A
:107CD000044A105C0028FAD051F8200070470000D8
:107CE000EC9500205E6F0300092808D2DFE800F061
:107CF0000707050707050505050001207047002057
:107D00007047092808D2DFE800F0070705070707D2
:107D100007070500012070470020704730B5EFF3DA
:107D2000108172B60D4A9468012324B103700029B2
:107D300000D162B630BD93604FF0E023D3F880519C
:107D4000074C25401560C3F88041D3F88441546046
:107D50005A17C3F8842100220270E8E728A80020FF
:107D6000FC06FFBD0B498A68002A11D000280FD1FC
:107D7000EFF3108072B60B684FF0E022C2F80031CA
:107D80004B68C2F8043100228A60002800D162B634
:107D90007047000028A8002070B5054608680C460A
:107DA000411C04D00BF050FF20680BF00FFF6068FF
:107DB000411C02D000210BF0F7FE2968A069C1F830
:107DC0002405607D227D29681043C1F86C05D4E943
:107DD00000122868C0F81425C0F80C15207D012871
:107DE00014D1A068411C02D000210BF0DDFEE06838
:107DF000411C04D00BF028FFE0680BF0E7FED4E94B
:107E000002122868C0F80825C0F8101570BD70B5BA
:107E1000054608680C46411C04D00BF01FFF206883
:107E20000BF0DEFE6068411C02D000210BF0C5FEA5
:107E30002968A069C1F82405607D217D2A6808436E
:107E4000C2F86C05D4E900122868C0F80C15C0F817
:107E50001425207D012814D1A068411C02D00021E6
:107E60000BF0ABFEE068411C04D00BF0F7FEE068BD
:107E70000BF0B6FED4E902122868C0F80825C0F855
:107E8000101570BD102802D31038C0B2704740F0F2
:107E9000800070472DE9FC471D46070090460E46BE
:107EA0000AD036B10024019438780DF1040969280C
:107EB00004D00720BDE8FC870E20FBE70120134615
:107EC00001904A4638460EF0ABFB0028F2D12B4613
:107ED0004A4631463846009407F00EFE0028E9D1A4
:107EE0002B68EBB30025D8F800002C4624281FD0BF
:107EF0000CDC212815D004DC01281BD020281DD142
:107F00000DE0222810D0232818D10FE0402813D0EC
:107F100041282DD0A0282DD0A1280FD12CE0184D1C
:107F200000E0184D9C1C09E0174DFBE7174DF9E7E1
:107F3000174DF7E7174D00E0174D1C462038032872
:107F400006D84A46314638460EF0A2FB0028B1D189
:107F500023464A4631463846009509F01DFF00E0A9
:107F600001E00028A6D10198B04207D00920A1E77E
:107F70000A4DE2E70A4DE0E70A4DDEE7002099E707
:107F8000038D02003DBB0200A9CF02006BB80200C6
:107F90007DE30200B57F02009D8C0200198C020077
:107FA00013CD020005CD020013460A4601466920A2
:107FB0000DF026B818B112B10BB10EF069BB0E204E
:107FC000704738B568B162B15BB11C466B460EF0C4
:107FD0005FFB002804D19DF8001001F00101217021
:107FE00038BD0E2038BD08B551B14BB140B1007855
:107FF00000F001008DF8000068460EF056FB08BD49
:108000000E2008BD2DE9F84316465FEA00082BD084
:1080100056B34BB3164F1C460D46009709F0DAFED7
:10802000002822D1631C324629464046009709F0B9
:10803000D1FE002819D1A31C3246294640460EF035
:1080400027FB002811D1E31C3246294640460EF09A
:108050001FFB002809D101B0231D324629464046A6
:10806000BDE8F0430EF014BB0E20BDE8F88300001D
:108070009DEA02002DE9F8431D4690460E002AD0E5
:108080004DB340B3154F0446009709F0FDFE00289C
:1080900022D12B4642463146601C009709F0F4FE7F
:1080A000002819D12B4642463146A01C0EF0FDFA9D
:1080B000002811D12B4642463146E01C0EF0F5FA5D
:1080C000002809D101B02B4642463146201DBDE8AB
:1080D000F0430EF0EABA0E20BDE8F883DBEA0200B6
:1080E0002DE9FC41164607000DD066B15BB11C4678
:1080F0000D4601AB0EF094FA002805D1019840B16D
:10810000216819B105E00E20BDE8FC8107F042FDB1
:108110002060201D009023463246294638460AF04A
:108120005CFBF1E72DE9FC411D4617460E0012D01D
:108130008DB180B104460068019001A80EF087FA65
:10814000002806D10095A1883B46324620680AF0F7
:108150005CFBBDE8FC810E20FBE7F8B51446060089
:108160000D461ED0ECB100200090631C6A463046DC
:108170000EF08EFA002813D123466A46294630466F
:108180000EF086FA00280BD1631D6A462946304658
:108190000EF07EFA002803D10099A94200D00920F0
:1081A000F8BD0E20F8BD17B581B0144669B164B1B1
:1081B000002000906B4601A822680EF048FA0028C3
:1081C00001D10099216004B010BD0E20FBE728B159
:1081D00011B10078602803D0072070470E20704747
:1081E000012901D0092070470020704713460A4634
:1081F000014660200CF004BF30B41AB313B308B3C7
:108200000488332C7DD020DC332C7BD2DFE804F0D3
:10821000FE5653FEFEFEFEFEFEFEFEFEFEFEFEFED1
:108220007D77595F6268836B86656E7471F8805CD8
:10823000FB8C898F92FEFEFEFEFEFEFEFEFEFEFE23
:10824000A5B495000E2030BC7047532C7DD018DCAF
:108250003A2C7BD008DCA4F13404062C52D2DFE89F
:1082600004F09172828E887F502C70D004DC3B2CFD
:108270007CD03C2C46D190E0512C6AD0522C41D17C
:108280009DE0722C66D00EDC572C7DD006DC542C81
:108290007BD0552C7AD0562C34D184E0702C76D0FB
:1082A000712C2FD197E0733C052C2BD2DFE804F022
:1082B000999C9FA2A50030BC00F0ACB830BC00F087
:1082C000F5B830BC01F080BB30BC01F0B5BB30BCB0
:1082D00001F0B4BF30BC01F041BF30BC01F0C6BA00
:1082E00030BC01F0F3BD30BC01F08CBA30BC01F001
:1082F000F7BB30BC01F0ACBE30BC02F037B830BCCC
:1083000001E01DE082E001F01DBD30BC01F02EBC9B
:1083100030BC01F0D9BF30BC01F05FBD30BC01F012
:108320008FBD30BC01F016BE30BC01F059BE30BC70
:1083300001F0D0BC30BC01F095BC30BC03F0DCBC1B
:1083400030BC03F017BE30BC05E029E022E030E08D
:108350000CE031E042E003F041BD30BC03F03EBF31
:1083600030BC03F0CBBE30BC03F0A8BF30BC04F07F
:1083700089B830BC04F01CB930BC04F00FB830BC74
:1083800003F098BD30BC03E01FE00FE01AE01FE0EF
:1083900003F02ABC30BC03F05FBE30BC04F0C3B8AD
:1083A00030BC04F0B9BE30BC05F036B830BC04F0C7
:1083B000C9BF30BC05F070B830BC04F043BF30BC5E
:1083C00004F0EABF30BC04F067BE30BC04F0E3BE8A
:1083D00030BC06F0A1B930BC06F05AB930BC06F08A
:1083E00017B930BC06F035B830BC06F0C5B830BCA3
:1083F00005F0F4BF30BC06F05EB830BC06F0D6B96C
:1084000030BC01F03DB930BC01F05EBE0620002159
:10841000196018E72DE9FE431D461646040007D0F3
:1084200036B12DB12088022804D00720BDE8FE8394
:108430000E20FBE700270197D5F8008002200DF100
:108440000409ADF808004B464246314602A80EF03A
:10845000CDF80028EAD14B4642463146201D0EF0A9
:10846000C5F80028E2D14B464246314604F10800E7
:108470000EF01BF90028D9D14B464246314604F193
:1084800010000EF0B3F80028D0D100974B464246BA
:108490003146E06807F05EFB0028C7D1A08807F0EE
:1084A00045FC0028C2D101992960BFE72DE9FC41B4
:1084B0001D461646040007D036B12DB1208801288C
:1084C00004D00720BDE8FC810E20FBE700200090CF
:1084D0002F680120E846ADF8040043463A4631468D
:1084E00001A80EF083F80028ECD143463A46314605
:1084F000201D0EF07BF80028E4D143463A46314671
:1085000004F108000EF0D1F80028DBD100992960B1
:10851000D8E77CB50C4640B12CB100230193057817
:1085200001A96D2D03D007207CBD0E207CBD012547
:10853000CDE9003513460A46214607F0DDFA00284A
:10854000F4D10198A04201D009207CBD00207CBD5F
:108550002DE9FF4182B0984614460F0028D03CB365
:108560000020009025686D206E468DF8040033468B
:108570002A4601A80EF099F8002816D133462A465B
:10858000394602A80EF063F800280ED1029848B9C7
:108590005FEA080039462A46334609D000F05AF807
:1085A000002802D100982060002006B0BDE8F081CC
:1085B0000E20FAE71CB50C4640B12CB10021019108
:1085C000037801A96C2B03D007201CBD0E201CBD15
:1085D00001230193074B009313460A46214607F0F7
:1085E0008BFA0028F3D10198A04201D009201CBDCC
:1085F00000201CBD0586020013460A4601466C2079
:108600000CF0FEBC2DE9FC411646070020D0FEB15F
:10861000F3B11C460D4601AB0EF03AF8002815D117
:1086200006200090631C3246294638460EF04AF870
:1086300000280BD19DF80420217862F300012170FD
:108640009DF80420520862F347012170BDE8FC81C7
:108650000E20FBE72DE9FC411D4617460E0013D006
:1086600095B188B1044600788DF8040001A80EF099
:108670001CF8002806D13B4632460621601C0095B6
:108680000EF036F8BDE8FC810E20FBE72DE9F8433B
:1086900016465FEA000813D096B18BB1094F1C460D
:1086A0000D46009709F082FB002807D104F108036A
:1086B000324629464046009709F078FBBDE8F8832A
:1086C0000E20FBE7E18002002DE9FF41164607007E
:1086D0006ED0002E6CD0002B6AD0364800901C461D
:1086E0000D46384609F062FB00285ED13248009002
:1086F000231D32462946384607F0FEF9002854D19A
:1087000004F108033246294638460DF089FF002857
:108710004BD104F10C033246294638460DF057FF81
:10872000002842D104F10E033246294638460DF0A6
:10873000AFFF002839D104F10F000290052000900E
:10874000019002AB32462946384606F03FFC00282D
:108750002BD104F114033246294638460DF098FF18
:10876000002822D104F115033246294638460DF07F
:108770008FFF002819D104F11603324629463846E6
:108780000DF086FF002810D103AB3246294638464B
:108790000DF07EFF002808D19DF80C20E17D62F3EA
:1087A0000301120962F30411E17504B0BDE8F08120
:1087B0000E20FAE7BD87020005860200F8B51646CE
:1087C000070019D0C6B1BBB11C460D460DF060FFC5
:1087D000002810D16B463246294638460DF058FF26
:1087E000002808D19DF80020617862F3000152084A
:1087F00062F341016170F8BD0E20F8BD38B501B3D8
:10880000FBB1F0B10088C0F34005044665F35F0496
:10881000C0F3800544EA8504C0F3C00544EAC504FA
:10882000C0F3001544EA0514C0F3411544EA4514A9
:1088300020F07F000443ADF8004068460DF0D6FEFE
:1088400038BD0E2038BD00002DE9FC411D46089CB6
:108850000E46070037D036B10020019038780DF170
:108860000408722802D00720BDE8FC810120019095
:108870004AB3106838B335B3286820B31CB32068F6
:1088800008B31348134600904246384607F034F9BF
:108890000028E9D10F4800902B4642463146384621
:1088A00007F02AF90028DFD10B4800902346424602
:1088B0003146384607F020F90028D5D10198B0425A
:1088C00003D00920D0E70E20CEE70020CCE700003F
:1088D000916603008D860200C98602002DE9FF41E2
:1088E00084B0984614460F0019D0C4B100200190FE
:1088F0002568722001AE8DF8080033462A4602A88A
:108900000DF0D3FE00280BD133462A46394604A881
:108910000DF09DFE002803D1049870B903E00E20ED
:1089200008B0BDE8F0810748009033462A46394632
:10893000404607F00FF90028F2D10198206000208E
:10894000EEE70000AB660300F8B51F460C460500D5
:1089500008D02CB10020009028786E46732803D0F0
:108960000720F8BD0E20F8BD0120134600903246C6
:1089700028460DF08DFE0028F5D13B4632462146B3
:1089800028460DF085FE0028EDD10098A04201D0C8
:108990000920F8BD0020F8BD13460A4601467320A1
:1089A0000CF02EBB38B50C4640B12CB10021009123
:1089B00003786946742B03D0072038BD0E2038BDDC
:1089C0000123009313460A4621460DF061FE00285C
:1089D000F5D10098A04201D0092038BD002038BD53
:1089E00013460A46014674200CF00ABB7CB50C46BF
:1089F000D0B12CB100230193057801A9792D01D0C4
:108A000007207CBD0125019572B1156865B1009301
:108A100013460A46214607F06FF80028F1D1019865
:108A2000A04203D009207CBD0E207CBD00207CBD6F
:108A30002DE9FF4184B0984614460F0019D0C4B107
:108A4000002001902568792001AE8DF8080033469A
:108A50002A4602A80DF029FE00280BD133462A46EB
:108A6000394604A80DF0F3FD002803D1049870B92D
:108A700003E00E2008B0BDE8F081074800903346BF
:108A80002A463946404607F065F80028F2D1019899
:108A900020600020EEE70000ED65030038B50C46CD
:108AA000B8B12CB10021009103786946782B01D030
:108AB000072038BD012300935AB113460A462146C8
:108AC0000DF085FD0028F4D10098A04203D00920C4
:108AD00038BD0E2038BD002038BD13460A46014679
:108AE00078200CF08DBA2DE9FE431F46DDF8288072
:108AF0000C46050022D0F4B100200290287802AE86
:108B0000802818D101200290C2B1BFB1134632466D
:108B100028460DF05CFD00280ED13B46324621462A
:108B200028460DF0B5FD002806D1387840B101285F
:108B300008D0022808D00720BDE8FE830E20FBE7FE
:108B4000002202E0062200E0102200920192434639
:108B500032462146284606F039FA0028ECD1029820
:108B6000A04201D00920E7E70020E5E713460A46C6
:108B7000014680200CF044BA2DE9FC411C460D460C
:108B8000060025D02DB100200190307801AF7E285D
:108B900002D00720BDE8FC8101200190C2B1BCB128
:108BA0002068A8B113463A4630460DF010FD002863
:108BB000F0D10948009023463A462946304606F04F
:108BC0009BFF0028E6D10198A84203D00920E1E7E5
:108BD0000E20DFE70020DDE7D5B4020013460A4689
:108BE00001467E200CF00CBA2DE9F0411D461746D7
:108BF0000E000ED06DB160B104460DF0F7FC0028F8
:108C000008D12B463A463146A01CBDE8F0410DF094
:108C10004CBD0E20BDE8F0812DE9FE4316465FEA0B
:108C2000000836D0A6B39BB35F891B4800901C4652
:108C30000D46404609F0BAF8002827D102AB32466B
:108C4000294640460DF024FD00281FD19DF808005C
:108C500004F1080300F003006070324629464046E4
:108C60000DF0B5FC002811D104F10A033246294663
:108C700040460DF0ACFC002808D12089231DCDE929
:108C8000007032462946404606F0A0F9BDE8FE8352
:108C9000FFE70E20FAE70000098F0200F8B516463C
:108CA00007002CD05EB353B31C460D465B1C0DF081
:108CB000EFFC002822D1A31C3246294638460DF08D
:108CC000E7FC00281AD1E31C3246294638460DF04D
:108CD000DFFC002812D123463246294638460DF0E3
:108CE000D7FC00280AD16B463246294638460DF09B
:108CF000CFFC002802D19DF800102171F8BD0E2094
:108D0000F8BD2DE9F041164607000FD076B16BB1E2
:108D10001C460D460DF0BCFC002808D1A31C3246B1
:108D200029463846BDE8F0410DF051BC0E20BDE8A3
:108D3000F08100002DE9FC411C460D46060025D0BF
:108D40002DB100200190307801AF752802D00720A6
:108D5000BDE8FC8101200190C2B1BCB12068A8B17E
:108D600013463A4630460DF032FC0028F0D109484F
:108D7000009023463A462946304606F0BDFE0028BC
:108D8000E6D10198A84203D00920E1E70E20DFE7F1
:108D90000020DDE7A58D020013460A460146752036
:108DA0000CF02EB92DE9F041164607001FD0F6B1A0
:108DB000EBB11C460D460DF00AFC002818D1A31C8F
:108DC0003246294638460DF002FC002810D1231DFA
:108DD0003246294638460DF0FAFB002808D1A31D7B
:108DE000324629463846BDE8F0410DF0F0BB0E2072
:108DF000BDE8F0812DE9F0411D4617460E001ED05A
:108E0000EDB1E0B104460DF0F1FB002818D12B467E
:108E10003A463146A01C0DF0E9FB002810D12B4644
:108E20003A463146201D0DF0E1FB002808D12B46C3
:108E30003A463146A01DBDE8F0410DF0D7BB0E20EB
:108E4000BDE8F0812DE9FC4198460C46050021D093
:108E50002CB100260196287801AF872802D0072080
:108E6000BDE8FC8101200190A2B113463A46284694
:108E70000DF0ADFB0028F3D143463A462146284683
:108E8000009606F039FE0028EAD10198A04203D0EE
:108E90000920E5E70E20E3E70020E1E72DE9FF41A7
:108EA00084B01C46150088461AD0CCB10020019031
:108EB0002668872001AF8DF808003B4632462946D8
:108EC00002A80DF0F2FB00280BD13B4632462946A2
:108ED00004A80DF0BCFB002803D1049870B903E08E
:108EE0000E2008B0BDE8F081064800903B463246AF
:108EF0002946404606F02EFE0028F2D10198206057
:108F00000020EEE7558F020038B5A0B19AB193B1B9
:108F10001C466B460DF0BCFB00280BD19DF80020D1
:108F2000217862F3030121709DF80020120962F399
:108F30000711217038BD0E2038BD08B541B13BB1D5
:108F400030B100788DF8000068460DF0AEFB08BD2A
:108F50000E2008BDF8B51D4617460E0012D08DB183
:108F600080B1044608480090204608F051FF0028D0
:108F700009D101B02B463A463146601CBDE8F040AD
:108F80000DF093BB0E20F8BD3B8F020013460A463E
:108F900001468D200CF034B82DE9FC471D46DDE973
:108FA0000A490E46070040D036B1002001903878BB
:108FB0000DF104088C2802D00720BDE8FC870120B1
:108FC00001908AB3106878B375B3286860B35CB356
:108FD000206848B31748134600904246384606F0CA
:108FE0008BFD0028E9D1144800902B4642463146BB
:108FF000384606F081FD0028DFD110480090234656
:1090000042463146384606F077FD0028D5D14B461A
:109010004246314638460DF03BFB0028CDD1019841
:10902000B04204D00920C8E7FFE70E20C5E70020C2
:10903000C3E7000005860200D1AF0200A58D020043
:1090400013460A4601468C200BF0DABF2DE9F041A9
:109050001D4617460E0016D0ADB1A0B104460DF066
:10906000C5FA002810D12B463A463146A01C0DF017
:10907000BDFA002808D12B463A463146201DBDE8EE
:10908000F0410DF0B3BA0E20BDE8F0812DE9F041BA
:10909000164607001FD0F6B1EBB11C460D460DF089
:1090A00096FA002818D1A31C3246294638460DF0FE
:1090B0008EFA002810D1231D3246294638460DF07D
:1090C00086FA002808D1A31D324629463846BDE855
:1090D000F0410DF07CBA0E20BDE8F0812DE9F041A1
:1090E0001D4617460E001ED0EDB1E0B104460DF04E
:1090F0007DFA002818D12B463A463146A01C0DF0C7
:1091000075FA002810D12B463A463146201D0DF045
:109110006DFA002808D12B463A463146A01DBDE81D
:10912000F0410DF063BA0E20BDE8F0812DE9FC4757
:109130009846DDF828900C46050009D02CB1002691
:109140000196287801AF902804D00720BDE8FC875D
:109150000E20FBE70120134601903A4628460DF009
:1091600036FA0028F2D10D48009043463A4621468F
:10917000284606F0C1FC0028E8D14B463A46214675
:109180002846009606F0B8FC0028DFD10198A042DE
:1091900001D00920DAE70020D8E700008D90020016
:1091A0002DE9FF4184B0984614460F0019D0C4B190
:1091B000002001902568902001AE8DF8080033460C
:1091C0002A4602A80DF071FA00280BD133462A4630
:1091D000394604A80DF03BFA002803D1049870B971
:1091E00003E00E2008B0BDE8F08107480090334648
:1091F0002A463946404606F0ADFC0028F2D10198D7
:1092000020600020EEE700004D9002002DE9FF5F96
:109210001D460E9F144688465FEA000942D0B8F109
:10922000000F07D0002602A8CDE9010699F800003A
:109230006F2803D0072004B0BDE8F09F0120029002
:109240007CB3206868B3006858B355B3286840B34E
:10925000006830B33B4641464846019A0DF018FA83
:109260000028E8D103AB41464846019A0DF010FAB8
:109270000028E0D19DF80C00012815D0266003AB32
:1092800041464846019A0DF003FA0028D3D19DF8D3
:109290000C0001281ED02E60029941452DD00920D6
:1092A000C9E7FFE70E20C6E7D4F800A00024DFF8E6
:1092B00050B00BE00AEB8403CDF800B041464846BD
:1092C000019A06F019FC0028B5D1641C3878A04238
:1092D000F0D8D4E72D6800240A4E0AE005EB840399
:1092E000009641464846019A06F006FC0028A2D1A5
:1092F000641C3878A042F1D8CEE700209BE700003C
:10930000EDA302006DA4020013460A4601466F2039
:109310000BF076BE2DE9FC4190460C46050022D0AC
:109320002CB100260196287801AF7D2802D00720B5
:10933000BDE8FC8101200190ABB10D4800903A4698
:10934000284606F0D9FB0028F2D143463A4621468A
:109350002846009606F0D0FB0028E9D10198A042EB
:1093600003D00920E4E70E20E2E70020E0E7000058
:10937000CF6503002DE9FF4383B01E000E9C154608
:1093800089461BD0D4B100200190D4F800807D2004
:1093900001AF8DF808003B464246314602A80DF069
:1093A00084F900280BD13B464246314603A80DF014
:1093B0004EF9002803D10398C0B903E00E2007B08E
:1093C000BDE8F0830B4800903B46424631462846B4
:1093D00006F0C0FB0028F2D145B10097298843462A
:1093E000324648460DF084F90028E8D10198206003
:1093F0000020E4E7ED6503002DE9FC419846089E56
:109400000C46050027D02CB100200190287801AF30
:109410007C2802D00720BDE8FC8101200190D2B158
:10942000B8F1000F17D0B6B10D48134600903A4678
:10943000284606F061FB0028EDD143463A46214616
:109440002846009609F0C9F90028E4D10198A04205
:1094500003D00920DFE70E20DDE70020DBE7000076
:10946000098F020013460A4601467C200BF0C8BD56
:10947000F8B51F460C46050020D02CB10020009006
:1094800028786E46762801D00720F8BD012000908C
:10949000A2B19FB11346324628460DF098F8002835
:1094A000F3D13B463246214628460DF0F1F800281C
:1094B000EBD10098A04203D00920F8BD0E20F8BDE2
:1094C0000020F8BD13460A46014676200BF098BDF1
:1094D0002DE9FC411646070020D0FEB1F3B1102063
:1094E00000901C460D4638460DF0ECF8002813D1CC
:1094F00001AB3246294638460DF0CAF800280BD198
:109500009DF80410227C4B0861F3000263F34102D2
:10951000890861F387022274BDE8FC810E20FBE715
:109520002DE9FC411D4617460E001DD0E5B1D8B10E
:1095300013460A460446102100950DF0D9F800287C
:1095400010D1207C2B46C0F34002014662F35F013C
:1095500020F0030001438DF804103A46314601A87B
:109560000DF0A3F8BDE8FC810E20FBE7F8B5164628
:10957000070014D09EB193B10A4800901C460D46D6
:10958000384608F013FC002808D10748009004F181
:10959000120332462946384608F008FCF8BD0E2072
:1095A000F8BD0000D1940200C9A70200F8B51D461D
:1095B00017460E0013D095B188B1044609480090B3
:1095C000204608F025FC002808D1074800902B46CB
:1095D0003A46314604F1120008F01AFCF8BD0E209C
:1095E000F8BD000021950200F7A702002DE9FC411B
:1095F0001D46089C0E46070033D036B1002001906E
:1096000038780DF10408852802D00720BDE8FC81D8
:10961000012001902AB324B31DB3206808B3286841
:10962000F8B11346424638460CF0D1FF0028EDD180
:109630000E4800902B4642463146384606F05CFA0A
:109640000028E3D10A480090234642463146384676
:1096500006F052FA0028D9D10198B04203D009206F
:10966000D4E70E20D2E70020D0E70000C9A702000F
:10967000D194020013460A46014685200BF0C0BC77
:109680002DE9FE431D461646040007D036B12DB124
:1096900020881D2804D00720BDE8FE830E20FBE7AC
:1096A000002001902F681D200DF10408ADF808007E
:1096B00043463A46314602A80CF098FF0028EBD109
:1096C00043463A463146201D0CF090FF0028E3D176
:1096D0000648009043463A46314604F1080008F037
:1096E0008DFB0028D8D101992960D5E7F1960200B9
:1096F0002DE9FC411D4690460E0079D0002D77D013
:10970000002875D004463B480090204608F080FBB6
:1097100000286AD1384F2B4642463146A01C00979C
:1097200008F076FB002860D12B464246314604F112
:109730000900009708F06CFB002856D12B464246E2
:10974000314604F110000CF0B0FF00284DD12B463B
:109750004246314604F111000CF0A7FF002844D125
:109760002B464246314604F112000CF09EFF0028C1
:109770003BD12B464246314604F113000CF095FFD5
:10978000002832D12B464246314604F114000CF039
:109790008CFF002829D12B464246314604F11500A2
:1097A0000CF083FF002820D1E08A2B46C0F30B0089
:1097B000ADF804004246314601A80CF017FF00281E
:1097C00013D10E4800902B464246314604F1180052
:1097D00008F01EFB002808D1094800902B4642469D
:1097E000314604F1200008F013FBBDE8FC81FFE7DF
:1097F0000E20FAE7FD87020055860200258102004F
:10980000E98B02002DE9FC411D461646040007D0F5
:1098100036B12DB12088172804D00720BDE8FC817F
:109820000E20FBE7002000902F681720E846ADF8D7
:10983000040043463A46314601A80CF0D7FE002802
:10984000ECD143463A463146201D0CF0CFFE0028AD
:10985000E4D143463A46314604F108000CF025FFB6
:109860000028DBD100992960D8E700002DE9FF41ED
:109870001D461646040008D03EB135B1208819288F
:1098800005D0072004B0BDE8F0810E20FAE70020E3
:1098900001902F6819200DF10408ADF80800434627
:1098A0003A46314602A80CF0A1FE0028EAD1434610
:1098B0003A463146201D0CF099FE0028E2D11648A8
:1098C000009043463A46314604F1080008F096FA03
:1098D0000028D7D1A08803A906F0D6F918B1002036
:1098E00001992960CEE70D48009003980C49C0EB20
:1098F000001000EB800001EB800043463A46314601
:10990000001D08F07BFA0028BCD1A08806F09EF963
:109910000028E5D0B6E700002599020059B30200FF
:1099200034A800202DE9FC411D4690460E0045D08C
:10993000F5B3E8B341780446C1F38002084662F308
:109940009F00C1F3C00140EAC1008DF80400424607
:10995000314620460CF0A9FE00282DD12B46424668
:10996000314601A80CF0A1FE002825D1144F2B464A
:1099700042463146A01C009708F04AFA00281BD145
:109980002B4642463146E01C009708F041FA002879
:1099900012D10C4F2B4642463146201D009708F04D
:1099A00037FA002808D12B4642463146601D00E0B8
:1099B00004E0009708F02CFABDE8FC810E20FBE7DC
:1099C00095B302000BB202002DE9FE431D46164678
:1099D000040007D036B12DB12088122804D007200A
:1099E000BDE8FE830E20FBE7002001902F681220C7
:1099F0000DF10408ADF8080043463A46314602A886
:109A00000CF0F4FD0028EBD143463A463146201DC8
:109A10000CF0ECFD0028E3D10648009043463A469E
:109A2000314604F1080008F0E9F90028D8D101997D
:109A30002960D5E7C59A02002DE9FE431D4616466A
:109A4000040007D036B12DB120881F2804D007208C
:109A5000BDE8FE830E20FBE7002001902F681F2049
:109A60000DF10408ADF8080043463A46314602A815
:109A70000CF0BCFD0028EBD143463A463146201D90
:109A80000CF0B4FD0028E3D10648009043463A4666
:109A9000314604F1080008F0B1F90028D8D1019945
:109AA0002960D5E7A99A020038B531B12BB120B1B0
:109AB000034C009408F0ACF938BD0E2038BD00000E
:109AC000F58D020038B531B12BB120B1034C0094B3
:109AD00008F09EF938BD0E2038BD0000F58D02005B
:109AE0002DE9FE431D461646040007D036B12DB1C0
:109AF00020881A2804D00720BDE8FE830E20FBE74B
:109B0000002001902F681A200DF10408ADF808001C
:109B100043463A46314602A80CF068FD0028EBD1D6
:109B200043463A463146201D0CF060FD0028E3D143
:109B30000648009043463A46314604F1080008F0D2
:109B40005DF90028D8D101992960D5E7519B020021
:109B500038B531B12BB120B1034C009408F058F95D
:109B600038BD0E2038BD0000558F02002DE9FE43A0
:109B70001D461646040007D036B12DB120881028A6
:109B800004D00720BDE8FE830E20FBE700200190F3
:109B90002F6810200DF10408ADF8080043463A463E
:109BA000314602A80CF022FD0028EBD143463A468C
:109BB0003146201D0CF01AFD0028E3D10648009024
:109BC00043463A46314604F1080008F017F90028E8
:109BD000D8D101992960D5E7DD9B0200F8B51D4673
:109BE00017460E0038D0BDB3B0B304461B480090F2
:109BF000204608F00DF900282FD12B463A46314671
:109C0000E01D0CF052FD002827D1154800902B468E
:109C10003A46314604F1080008F0FAF800281CD151
:109C20002B463A46314604F110000CF03EFD002868
:109C300013D12B463A46314604F118000CF0D6FCFD
:109C400000280AD101B02B463A46314604F12000E3
:109C5000BDE8F0400CF0CABC0E20F8BD55860200ED
:109C6000F58D02002DE9FE431D461646040007D07F
:109C700036B12DB12088242804D00720BDE8FE830A
:109C80000E20FBE7002001902F6824200DF104082E
:109C9000ADF8080043463A46314602A80CF0A6FC4F
:109CA0000028EBD143463A463146201D0CF09EFC7D
:109CB0000028E3D10648009043463A46314604F175
:109CC000080008F09BF80028D8D101992960D5E751
:109CD000DD9002002DE9FE431D461646040007D024
:109CE00036B12DB12088232804D00720BDE8FE839B
:109CF0000E20FBE7002001902F6823200DF10408BF
:109D0000ADF8080043463A46314602A80CF06EFC16
:109D10000028EBD143463A463146201D0CF066FC44
:109D20000028E3D10648009043463A46314604F104
:109D3000080008F063F80028D8D101992960D5E718
:109D4000DD9002002DE9FF411D461646040008D0B3
:109D50003EB135B12088112805D0072004B0BDE8F8
:109D6000F0810E20FAE7002001902F6811200DF1FC
:109D70000408ADF8080043463A46314602A80CF004
:109D800035FC0028EAD143463A463146201D0CF006
:109D90002DFC0028E2D10C48009043463A4631465B
:109DA00004F1080008F02AF80028D7D1A08803A9F8
:109DB00005F06AFF20B9A08805F048FF0028CDD142
:109DC000019900202960C9E7CD9D020019B113B1A6
:109DD00008B10CF06ABC0E2070472DE9FC411D460D
:109DE0001646040007D036B12DB12088162804D0BD
:109DF0000720BDE8FC810E20FBE7002000902F68C3
:109E00001620E846ADF8040043463A46314601A81C
:109E10000CF0ECFB0028ECD143463A463146201DBD
:109E20000CF0E4FB0028E4D143463A46314604F105
:109E300008000CF03AFC0028DBD100992960D8E733
:109E40002DE9FF411D461646040008D03EB135B14C
:109E50002088182805D0072004B0BDE8F0810E2026
:109E6000FAE7002001902F6818200DF10408ADF8E2
:109E7000080043463A46314602A80CF0B7FB0028DA
:109E8000EAD1207B434600F001008DF80C003A46F1
:109E90003146201D0CF0AAFB0028DDD10A480090B5
:109EA00043463A463146A06805F054FE0028D3D117
:109EB00043463A46314603A80CF0F7FB0028CBD1C5
:109EC00001992960C8E70000AFA702002DE9FF4112
:109ED0001D46904604000AD0B8F1000F07D035B1F6
:109EE0002088152805D0072004B0BDE8F0810E2099
:109EF000FAE7002001902F68152001AEADF80800A8
:109F000033463A46414602A80CF070FB0028EBD1DC
:109F1000A07B334600F001008DF80C003A46414624
:109F2000201D0CF063FB0028DED13B464246062193
:109F300004F1080000960CF0DBFB0028D4D1334676
:109F40003A46414603A80CF0B0FB0028CCD1019959
:109F50002960C9E72DE9FC411D461646040007D0DB
:109F600036B12DB12088222804D00720BDE8FC811D
:109F70000E20FBE7002000902F682220E846ADF875
:109F8000040043463A46314601A80CF02FFB002856
:109F9000ECD143463A463146201D0CF027FB002801
:109FA000E4D143463A46314604F108000CF07DFB0B
:109FB0000028DBD143463A46314604F109000CF053
:109FC00074FB0028D2D143463A46314604F10A00D8
:109FD0000CF06BFB0028C9D100992960C6E700008E
:109FE0002DE9FE431D461646040007D036B12DB1BB
:109FF0002088212804D00720BDE8FE830E20FBE73F
:10A00000002001902F6821200DF10408ADF8080010
:10A0100043463A46314602A80CF0E8FA0028EBD154
:10A0200043463A463146201D0CF0E0FA0028E3D1C1
:10A030000648009043463A46314604F1080007F0CE
:10A04000DDFE0028D8D101992960D5E7ADAA02002C
:10A050002DE9FC411D461646040007D036B12DB14E
:10A0600020881C2804D00720BDE8FC810E20FBE7D7
:10A07000002000902F681C20E846ADF804004346FD
:10A080003A46314601A80CF0B1FA0028ECD143461B
:10A090003A463146201D0CF0A9FA0028E4D1434687
:10A0A0003A46314604F108000CF0FFFA0028DBD1F3
:10A0B00043463A46314604F109000CF0F6FA00280E
:10A0C000D2D100992960CFE72DE9FE431D461646FF
:10A0D000040007D036B12DB12088202804D00720F5
:10A0E000BDE8FE830E20FBE7002001902F682020B2
:10A0F0000DF10408ADF8080043463A46314602A87F
:10A100000CF074FA0028EBD143463A463146201D44
:10A110000CF06CFA0028E3D143463A46314604F18C
:10A1200008000CF0C2FA0028DAD10B480090434630
:10A130003A46314604F10A0007F060FE0028CFD10C
:10A1400043463A46314604F109000CF0AEFA0028C5
:10A15000C6D101992960C3E7558602002DE9FE4367
:10A160001D461646040007D036B12DB120881428AC
:10A1700004D00720BDE8FE830E20FBE700200190FD
:10A180002F6814200DF10408ADF8080043463A4644
:10A19000314602A80CF02AFA0028EBD143463A4691
:10A1A0003146201D0CF022FA0028E3D10648009029
:10A1B00043463A46314604F1080007F01FFE0028E6
:10A1C000D8D101992960D5E7CDA102002DE9FC4144
:10A1D0001D4617460E002AD04DB340B30446807C7E
:10A1E000C0F34002014662F35F01C0F3800041EA20
:10A1F00080008DF804000F4800903A463146204612
:10A2000007F006FE002810D10B4800902B463A4676
:10A21000314604F1080007F0FBFD002805D12B466C
:10A220003A46314601A80CF040FABDE8FC810E2008
:10A23000FBE7000055860200F7A702002DE9FE4368
:10A240001D461646040007D036B12DB120881328CC
:10A2500004D00720BDE8FE830E20FBE7002001901C
:10A260002F6813200DF10408ADF8080043463A4664
:10A27000314602A80CF0BAF90028EBD143463A4621
:10A280003146201D0CF0B2F90028E3D106480090B9
:10A2900043463A46314604F1080007F0AFFD002876
:10A2A000D8D101992960D5E7ADA2020038B531B106
:10A2B0002BB120B1034C009407F0AAFD38BD0E204D
:10A2C00038BD000091B502002DE9FE431D4616463B
:10A2D000040007D036B12DB120881E2804D00720F5
:10A2E000BDE8FE830E20FBE7002001902F681E20B2
:10A2F0000DF10408ADF8080043463A46314602A87D
:10A300000CF074F90028EBD143463A463146201D43
:10A310000CF06CF90028E3D10648009043463A4619
:10A32000314604F1080007F069FD0028D8D10199F1
:10A330002960D5E739A3020038B5A9B1A3B198B116
:10A340000078C0F34005044665F35F04C0F3800560
:10A3500044EA8504C0F3C00044EAC0008DF8000060
:10A3600068460CF0A2F938BD0E2038BD2DE9FC413D
:10A370001D461646040007D036B12DB120881B2893
:10A3800004D00720BDE8FC810E20FBE700200090F0
:10A390002F681B20E846ADF8040043463A46314694
:10A3A00001A80CF023F90028ECD143463A46314687
:10A3B000201D0CF01BF90028E4D143463A463146F3
:10A3C00004F108000CF071F90028DBD1217A012991
:10A3D00008D143463A46314604F110000CF006F924
:10A3E0000028CFD100992960CCE70000F8B51646C7
:10A3F000070014D09EB193B10A4800901C460D4648
:10A40000384607F0D3FC002808D10748009004F133
:10A41000100332462946384607F0C8FCF8BD0E2026
:10A42000F8BD00006DA4020005860200F8B51D46C7
:10A4300017460E0013D095B188B104460948009024
:10A44000204607F0E5FC002808D1074800902B467D
:10A450003A46314604F1100007F0DAFCF8BD0E2050
:10A46000F8BD000083A402005586020038B530B163
:10A470002AB123B1102400940CF024F938BD0E2029
:10A4800038BD08B541B13BB130B1009313460A461F
:10A4900010210CF02DF908BD0E2008BDF8B51F469F
:10A4A0000C46050020D02CB10020009028786E4684
:10A4B000822801D00720F8BD01200090A2B19FB1F1
:10A4C0001346324628460CF082F80028F3D13B466A
:10A4D0003246214628460CF0DBF80028EBD10098E4
:10A4E000A04203D00920F8BD0E20F8BD0020F8BD21
:10A4F00013460A46014682200AF082BD2DE9FC413E
:10A500001F460C46050023D02CB10020019028786E
:10A5100001AE812802D00720BDE8FC810120019016
:10A52000B2B1AFB11346324628460CF050F80028BD
:10A53000F2D1094800903B4632462146284605F0B4
:10A54000DBFA0028E8D10198A04203D00920E3E714
:10A550000E20E1E70020DFE769A5020013460A4666
:10A56000014681200AF04CBD38B530B12AB123B183
:10A57000202400940CF0A6F838BD0E2038BD000051
:10A580002DE9FC479846DDF828900C46050031D0AF
:10A590002CB100260196287801AF832802D007202D
:10A5A000BDE8FC870120019022B35FEA090021D0B9
:10A5B000B8F1000F1ED013463A4628460CF007F8B3
:10A5C0000028EDD10D48009043463A4621462846E2
:10A5D00005F092FA0028E3D14B463A462146284638
:10A5E000009605F089FA0028DAD10198A04203D03C
:10A5F0000920D5E70E20D3E70020D1E799A7020074
:10A600002DE9FF4184B01C46150088461AD0CCB114
:10A61000002001902668832001AF8DF808003B469A
:10A620003246294602A80CF040F800280BD13B46E0
:10A630003246294604A80CF00AF8002803D10498F1
:10A6400070B903E00E2008B0BDE8F0810648009024
:10A650003B4632462946404605F07CFA0028F2D1B6
:10A66000019820600020EEE74DA702002DE9FC478D
:10A670009846DDF828900C46050031D02CB100201A
:10A680000190287801AE842802D00720BDE8FC871D
:10A690000120019022B3B8F1000F21D05FEA090038
:10A6A0001ED01346324628460BF091FF0028EDD10C
:10A6B0000D4F4346324621462846009705F01CFAC6
:10A6C0000028E3D14B46324621462846009705F044
:10A6D00013FA0028DAD10198A04203D00920D5E767
:10A6E0000E20D3E70020D1E7F9A6020013460A4660
:10A6F000014684200AF084BC2DE9F84316465FEA3F
:10A7000000081ED0EEB1E3B10F4800901C460D4684
:10A71000404607F04BFB002811D11027E31D3246BD
:10A720002946404600970BF0CDFF002807D104F1E1
:10A73000170332462946404600970BF0C3FFBDE899
:10A74000F8830E20FBE7000005860200F8B51D46E1
:10A7500017460E001BD0D5B1C8B104460D48009075
:10A76000204607F055FB002810D13B463246102109
:10A77000E01D00950BF0BCFF002807D13B46324698
:10A78000102104F1170000950BF0B2FFF8BD0E2068
:10A79000F8BD00005586020038B530B12AB123B1AA
:10A7A000402400940BF08EFF38BD0E2038BD08B554
:10A7B00041B13BB130B1009313460A4640210BF042
:10A7C00097FF08BD0E2008BDF8B51646070010D04B
:10A7D0007EB173B11C460D460BF0F9FE002807D17F
:10A7E00008200090A31C3246294638460BF06AFF29
:10A7F000F8BD0E20F8BDF8B51D4617460E000ED068
:10A800006DB160B104460BF0F1FE002806D13B4665
:10A8100032460821A01C00950BF06AFFF8BD0E20FF
:10A82000F8BD2DE9F041164607000FD076B16BB1A7
:10A830001C460D460BF0CBFE002808D1A31C324667
:10A8400029463846BDE8F0410BF0C1BE0E20BDE8F8
:10A85000F0812DE9F0411D4617460E000ED06DB176
:10A8600060B104460BF0C2FE002808D12B463A46E0
:10A870003146A01CBDE8F0410BF0B8BE0E20BDE88B
:10A88000F081F8B51646070010D07EB173B11C46B2
:10A890000D460BF09CFE002807D105200090A31C5C
:10A8A0003246294638460BF00DFFF8BD0E20F8BDA4
:10A8B000F8B51D4617460E000ED06DB160B10446C6
:10A8C0000BF094FE002806D13B4632460521A01C21
:10A8D00000950BF00DFFF8BD0E20F8BD38B558B14E
:10A8E00052B14BB11C466B460BF0D2FE002802D190
:10A8F0009DF80010217038BD0E2038BD08B551B14B
:10A900004BB140B1007800F001008DF800006846BE
:10A910000BF0CBFE08BD0E2008BD0000F8B51646B2
:10A92000070018D0BEB1B3B11C460D460BF04FFE68
:10A9300000280FD1A31C3246294638460BF047FEAB
:10A94000002807D105480090231D32462946384685
:10A9500005F0D2F8F8BD0E20F8BD0000CF65030069
:10A96000F8B51D4617460E0017D0B5B1A8B104467C
:10A970000BF03CFE00280FD12B463A463146A01C76
:10A980000BF034FE002807D1054800902B463A46CC
:10A990003146606805F0DEF8F8BD0E20F8BD000015
:10A9A000ED6503001CB538B132B12BB1062400941B
:10A9B000019404F00BFB1CBD0E201CBD08B549B171
:10A9C00043B138B1009313460A460068062104F0EB
:10A9D0002FFB08BD0E2008BDF8B51646070013D0A2
:10A9E00096B18BB11C460D460BF0F1FD00280AD143
:10A9F0006B463246294638460BF04AFE002802D103
:10AA00009DF80010A170F8BD0E20F8BD2DE9FC41A5
:10AA10001C460D46060025D02DB10020019030784F
:10AA200001AF8F2802D00720BDE8FC8101200190F2
:10AA3000C2B1BCB12068A8B113463A4630460BF00B
:10AA4000C6FD0028F0D10948009023463A46294621
:10AA5000304605F051F80028E6D10198A84203D00D
:10AA60000920E1E70E20DFE70020DDE77DAA0200F4
:10AA700013460A4601468F200AF0C2BA2DE9F0417A
:10AA8000164607000FD076B16BB11C460D460BF091
:10AA9000FFFD002808D1631C324629463846BDE830
:10AAA000F0410BF0F5BD0E20BDE8F0812DE9F0413D
:10AAB0001D4617460E000ED06DB160B104460BF076
:10AAC000F4FD002808D12B463A463146601CBDE80B
:10AAD000F0410BF0EABD0E20BDE8F0817CB50C46DC
:10AAE000E0B12CB100230193057801A97B2D01D0A1
:10AAF00007207CBD0125019582B1156875B1022C36
:10AB00000AD3009313460A46214604F0F5FF0028B5
:10AB1000EFD10198A04203D009207CBD0E207CBD5E
:10AB200000207CBD2DE9FF4184B0984614460F00FB
:10AB300019D0C4B10020019025687B2001AE8DF8AA
:10AB4000080033462A4602A80BF0AFFD00280BD1BF
:10AB500033462A46394604A80BF079FD002803D174
:10AB6000049870B903E00E2008B0BDE8F0810748F2
:10AB7000009033462A463946404604F0EBFF002851
:10AB8000F2D1019820600020EEE70000F58D020070
:10AB90001CB50C46C8B12CB100210191037801A964
:10ABA0007A2B01D007201CBD012301936AB1094B08
:10ABB000009313460A46214604F09EFF0028F2D176
:10ABC0000198A04203D009201CBD0E201CBD00200E
:10ABD0001CBD0000A58D020013460A4601467A20DE
:10ABE0000AF00EBA1CB50C4640B12CB100210191FF
:10ABF000037801A9712B03D007201CBD0E201CBDBA
:10AC000001230193074B009313460A46214604F0A3
:10AC100073FF0028F3D10198A04201D009201CBD88
:10AC200000201CBD95AC02002DE9FF4184B0984680
:10AC300014460F0019D0C4B100200190256871207E
:10AC400001AE8DF8080033462A4602A80BF02DFD10
:10AC500000280BD133462A46394604A80BF0F7FCEE
:10AC6000002803D1049870B903E00E2008B0BDE8B5
:10AC7000F0810748009033462A463946404604F0A2
:10AC800069FF0028F2D1019820600020EEE7000063
:10AC9000E9AC0200F8B51646070020D0FEB1F3B1CA
:10ACA0001C460D460BF0F4FC002817D1631C3246FD
:10ACB000294638460BF0ECFC00280FD1A31C324685
:10ACC000294638460BF083FC002807D10548009040
:10ACD000231D32462946384604F00EFFF8BD0E20EB
:10ACE000F8BD00006DA40200F8B51D4617460E0021
:10ACF0001FD0F5B1E8B104460BF0D7FC002817D1FE
:10AD00002B463A463146601C0BF0CFFC00280FD191
:10AD10002B463A463146A01C0BF068FC002807D1B0
:10AD2000054800902B463A463146606804F012FF11
:10AD3000F8BD0E20F8BD000083A402001CB50C462F
:10AD400040B12CB100210191037801A9702B03D0EF
:10AD500007201CBD0E201CBD01230193074B00934F
:10AD600013460A46214604F0C7FE0028F3D1019895
:10AD7000A04201D009201CBD00201CBD95AC0200E2
:10AD800013460A46014670200AF03AB938B50C4617
:10AD9000B8B12CB10021009103786946912B01D004
:10ADA000072038BD012300935AB113460A462146B5
:10ADB0000BF036FC0028F4D10098A04203D0092003
:10ADC00038BD0E2038BD002038BD13460A46014666
:10ADD00091200AF015B928B111B10078922803D05A
:10ADE000072070470E207047012901D009207047C5
:10ADF0000020704713460A46014692200AF000B927
:10AE00002DE9FC471D460A9C0E46070035D046B189
:10AE10004FF00008CDF8048038780DF104098E2831
:10AE200002D00720BDE8FC87012001902AB325B39A
:10AE3000286810B313464A4638460BF0C8FB002872
:10AE4000F0D12B464A4631463846CDF8008004F012
:10AE500053FE0028E6D184B1206870B123464A46EB
:10AE600031463846CDF8008004F046FE0028D9D19E
:10AE70000198B04203D00920D4E70E20D2E7002089
:10AE8000D0E700002DE9FF4784B09946DDF840A0E7
:10AE900014465FEA01081AD0CCB100200190266860
:10AEA0008E2001AF8DF808003B463246414602A88D
:10AEB0000BF0FBFB00280BD13B463246414604A871
:10AEC0000BF0C5FB002803D10498B8B903E00E20AD
:10AED00008B0BDE8F0870B4D3B4632464146484638
:10AEE000009504F037FE0028F2D13B463246414639
:10AEF0005046009504F02EFE0028E9D1019820600C
:10AF00000020E5E7AB6603002DE9F8431F46DDF8B6
:10AF100020800C4605002CD02CB100200090287811
:10AF20006E46882802D00720BDE8F88301200090F3
:10AF3000FAB1F7B15FEA08001BD013463246284643
:10AF40000BF045FB0028EFD13B4632462146284610
:10AF50000BF09EFB0028E7D14346324621462846A7
:10AF60000BF096FB0028DFD10098A04203D0092007
:10AF7000DAE70E20D8E70020D6E713460A46014656
:10AF800088200AF03DB838B50C46B8B12CB1002184
:10AF9000009103786946892B01D0072038BD012331
:10AFA00000935AB113460A4621460BF010FB0028C5
:10AFB000F4D10098A04203D0092038BD0E2038BD3E
:10AFC000002038BD13460A46014689200AF018B809
:10AFD0002DE9FF411646070052D0002E50D0EBB3AA
:10AFE0001C460D4602AB0BF053FB002845D19DF8E3
:10AFF00008102078631C61F3000020709DF8081091
:10B000003246490861F3410020709DF80810890814
:10B0100061F3820020709DF80810C90861F3C40034
:10B020002070294638460BF033FB002825D104F167
:10B030000800039005200090019003AB324629469A
:10B04000384603F0C3FF002817D1A31C3246294617
:10B0500038460BF0BCFA00280FD100E010E0231DA9
:10B060003246294638460BF0B2FA002805D1A31D16
:10B070003246294638460BF0AAFA04B0BDE8F08102
:10B080000E20FAE72DE9FC411F460C46050026D0AC
:10B090002CB100200190287801AE8A2802D0072028
:10B0A000BDE8FC8101200190CAB11068B8B10E481A
:10B0B000134600903246284604F01EFD0028EFD1CA
:10B0C0000A4800903B4632462146284604F014FDCB
:10B0D0000028E5D10198A04203D00920E0E70E2026
:10B0E000DEE70020DCE70000D1AF0200E1800200D3
:10B0F00013460A4601468A2009F082BF13460A46D3
:10B1000001468B2009F07CBF2DE9FC471E46DDE996
:10B110000A540F465FEA000842D03FB10020019078
:10B1200098F800000DF10409862802D00720BDE838
:10B13000FC870120019092B38EB385B37CB3306855
:10B1400068B3286858B3206848B313464A46404657
:10B150000BF03DFA0028EAD11348009033464A46E6
:10B160003946404604F0C8FC0028E0D10F48009062
:10B170002B464A463946404604F0BEFC0028D6D14C
:10B180000B48009023464A463946404604F0B4FC3A
:10B190000028CCD10198B84204D00920C7E7FFE7C6
:10B1A0000E20C4E70020C2E7D19402006DA4020083
:10B1B00031B6020013460A460146862009F020BF38
:10B1C00038B500B3FAB1F3B11C466B460BF060FA28
:10B1D000002817D19DF80020217862F3000121702A
:10B1E0009DF80020520862F3410121709DF8002073
:10B1F000920862F3820121709DF80020D20862F368
:10B20000C301217038BD0E2038BD38B5A9B1A3B136
:10B2100098B10078C0F34005044665F35F04C0F3BD
:10B22000800544EA8504C0F3C00044EAC0008DF8FC
:10B23000000068460BF039FA38BD0E2038BD00001A
:10B24000F8B51646070029D046B33BB31448009022
:10B250001C460D46384604F04FFC00281DD111480D
:10B260000090231D32462946384604F045FC00284C
:10B2700013D10D48009004F10803324629463846A0
:10B2800004F03AFC002808D10848009004F10C03AF
:10B2900032462946384604F02FFCF8BD0E20F8BD92
:10B2A0006D950200EDA3020031B6020099A70200DD
:10B2B000F8B51D4617460E0026D02DB320B3044620
:10B2C00012480090206804F045FC00281BD110486B
:10B2D00000902B463A463146606804F03BFC00285B
:10B2E00011D10C4800902B463A463146A06804F034
:10B2F00031FC002807D1084800902B463A463146D9
:10B30000E06804F027FCF8BD0E20F8BDAD95020002
:10B310002DA4020047B60200AFA702002DE9F843B2
:10B3200016465FEA000813D096B18BB1094F1C4650
:10B330000D46009706F03AFD002807D104F11003EE
:10B34000324629464046009706F030FDBDE8F883B6
:10B350000E20FBE741B202002DE9F8431D4690465E
:10B360000E0012D08DB180B1094F0446009706F04F
:10B370004FFD002807D12B464246314604F110000C
:10B38000009706F045FDBDE8F8830E20FBE70000BE
:10B39000B1B2020038B5A9B1A3B198B10078C0F339
:10B3A0004005044665F35F04C0F3800544EA850464
:10B3B000C0F3C00044EAC0008DF8000068460BF0FE
:10B3C00074F938BD0E2038BD2DE9FC479846DDE9FB
:10B3D0000A540E4607003FD036B10020019038785D
:10B3E0000DF104097F2802D00720BDE8FC87012069
:10B3F000019082B3B8F1000F2ED065B3286850B326
:10B400004CB3206838B313464A4638460BF0DFF891
:10B410000028EAD143464A46314638460BF038F90F
:10B420000028E2D10E4800902B464A463146384665
:10B4300004F062FB0028D8D10A48009023464A460F
:10B440003146384604F058FB0028CED10198B0426E
:10B4500004D00920C9E7FFE70E20C6E70020C4E7B3
:10B46000D5B402001DB302002DE9FF4184B0984617
:10B4700014460F0019D0C4B10020019025687F2028
:10B4800001AE8DF8080033462A4602A80BF00DF9EC
:10B4900000280BD133462A46394604A80BF0D7F8CA
:10B4A000002803D1049870B903E00E2008B0BDE86D
:10B4B000F0810748009033462A463946404604F05A
:10B4C00049FB0028F2D1019820600020EEE700003F
:10B4D00059B302002DE9FC4116465FEA000853D03B
:10B4E000002E51D0002B4FD01C460D4601AB0BF067
:10B4F000CFF8002846D1631C3246294640460BF05F
:10B50000C7F800283ED1A31C3246294640460BF01E
:10B51000BFF8002836D11D4FE31C3246294640466D
:10B52000009706F043FC00282CD1231D3246294603
:10B530004046009706F03AFC002823D19DF80420ED
:10B54000217862F3000121709DF80420520862F313
:10B55000410121709DF80420920862F3820121705C
:10B560009DF80420D20862F3C30121709DF80420E5
:10B57000120962F3061121709DF80420D20962F3CA
:10B58000C7112170BDE8FC810E20FBE7C1B10200AC
:10B590002DE9FC411D4690460E0045D0F5B3E8B3B9
:10B5A00004460078C0F34002014662F35F01C0F335
:10B5B000800241EA8201C0F3C00241EAC201C0F345
:10B5C000021241EA021120F07F0001438DF80410BD
:10B5D0004246314601A80BF068F8002822D12B46DC
:10B5E00042463146601C0BF060F800281AD12B4609
:10B5F00042463146A01C0BF058F8002812D10B4FE0
:10B600002B4642463146E01C009706F001FC00281C
:10B6100008D12B4642463146201D00E004E0009749
:10B6200006F0F6FBBDE8FC810E20FBE70BB2020042
:10B6300038B530B12AB123B1102400940BF042F890
:10B6400038BD0E2038BD08B541B13BB130B10093D3
:10B6500013460A4610210BF04BF808BD0E2008BD1A
:10B660002DE9F8439846089F0C46050028D02CB1D8
:10B670000020009028786E46772802D00720BDE889
:10B68000F88301200090DFB11346324628460AF0C5
:10B69000FFFF0028F3D143463246214628460AF0F0
:10B6A00096FF0028EBD13B463246214628460AF059
:10B6B000EFFF0028E3D10098A04203D00920DEE785
:10B6C0000E20DCE70020DAE713460A460146772021
:10B6D00009F096BC2DE9FE4F1446060098460D462B
:10B6E00029D035B10027019730780DF1040A6E2872
:10B6F00002D00720BDE8FE8F01200190DCB1206858
:10B70000C8B10068B8B1524630460AF0C1FF0028FF
:10B71000F0D102AB5246294630460AF0B9FF002864
:10B72000E8D19DF80800012807D027600198A842B9
:10B7300019D00920DEE70E20DCE727680024DFF8B7
:10B740002C900BE007EB8403524629463046CDF897
:10B75000009004F0D1F90028CCD1641C98F80000C6
:10B76000A042EFD8E2E70020C4E70000058602000F
:10B7700013460A4601466E2009F042BC38B5A0B116
:10B780009AB193B11C466B460AF082FF00280BD198
:10B790009DF80020217862F3000121709DF80020BF
:10B7A000520862F34101217038BD0E2038BD38B512
:10B7B00090B38AB383B31C466B460AF069FF002836
:10B7C00029D19DF80020217862F3000121709DF8B5
:10B7D0000020520862F3410121709DF80020920878
:10B7E00062F3820121709DF80020D20862F3C30148
:10B7F00021709DF80020120962F3041121709DF858
:10B800000020520962F3451121709DF80020920931
:10B8100062F38611217038BDFFE70E20FBE738B5D3
:10B8200009B303B3F8B10078C0F34005044665F3EB
:10B830005F04C0F3800544EA8504C0F3C00544EA10
:10B84000C504C0F3001544EA0514C0F3401544EAEA
:10B850004514C0F3801044EA80108DF8000068465B
:10B860000AF023FF38BD0E2038BD18B112B10BB15C
:10B870000AF0ADBE0E207047F8B51D4617460E0003
:10B880000FD075B168B104460AF0B0FE002807D1A8
:10B89000054800902B463A463146A01C06F0CCFAEB
:10B8A000F8BD0E20F8BD0000BBEB0200F8B51D4648
:10B8B00017460E000FD075B168B104460AF096FE27
:10B8C000002807D1054800902B463A463146A01C77
:10B8D00006F0B2FAF8BD0E20F8BD0000D5ED02006A
:10B8E0002DE9FC411C460D46060025D02DB1002057
:10B8F0000190307801AF9F2802D00720BDE8FC817D
:10B9000001200190C2B1BCB12068A8B113463A46EB
:10B9100030460AF05CFE0028F0D10948009023462A
:10B920003A462946304604F0E7F80028E6D1019867
:10B93000A84203D00920E1E70E20DFE70020DDE781
:10B94000FFC6020013460A4601469F2009F058BB75
:10B950002DE9FC411D4617460E0032D085B378B361
:10B96000044619480090204606F066FA002825D1C2
:10B97000164800902B463A463146201D06F05CFAE8
:10B9800000281BD160792B4600F001008DF80400DF
:10B990003A46314601A80AF088FE00280ED12B460F
:10B9A0003A463146A01D0AF021FE002806D12B465A
:10B9B0003A46314604F108000AF018FEBDE8FC8161
:10B9C000FFE70E20FAE70000D5ED02001FB80200E5
:10B9D0002DE9FC411D46089C0E46070033D036B1C8
:10B9E0000020019038780DF10408A02802D007202B
:10B9F000BDE8FC81012001902AB325B3286810B36B
:10BA00000CB32068F8B11346424638460AF0DFFD11
:10BA10000028EDD10E4800902B464246314638466C
:10BA200004F06AF80028E3D10A4800902346424611
:10BA30003146384604F060F80028D9D10198B04268
:10BA400003D00920D4E70E20D2E70020D0E7000081
:10BA5000A5ED0200FFC6020013460A460146A020DB
:10BA600009F0CEBA2DE9FC411C46089F0D460600A0
:10BA700026D035B10020019030780DF10408A228BD
:10BA800002D00720BDE8FC8101200190C2B1BCB109
:10BA90002068A8B1A7B11346424630460AF097FD88
:10BAA0000028EFD12346424629463046009705F04C
:10BAB000EFFB0028E6D10198A84203D00920E1E776
:10BAC0000E20DFE70020DDE713460A460146A220EC
:10BAD00009F096BA2DE9FC411F460C46050009D035
