:02000004000EEC
:1000000018590020C9030E00D1030E00D3030E00BF
:10001000D5030E00D7030E00D9030E000000000028
:10002000000000000000000000000000DB030E00E4
:10003000DD030E0000000000DF030E00E1030E00F0
:10004000ED190E00E3030E00E3030E00E3030E00C0
:10005000E3030E00E3030E00E3030E00E3030E00D0
:10006000E3030E00E3030E00E3030E00E3030E00C0
:10007000E3030E00E3030E00E3030E00E3030E00B0
:10008000511D0E00FD190E00E3030E00E3030E00E8
:10009000E3030E00E3030E00E3030E00E3030E0090
:1000A000E3030E00E3030E00E3030E00E3030E0080
:1000B000E3030E00E3030E00000000000000000058
:1000C000E3030E00E3030E00E3030E00E3030E0060
:1000D000E3030E00E3030E00E3030E00E91B0E0032
:1000E000E3030E00E3030E0041050E0000000000D4
:1000F00000000000E3030E0000000000E3030E0018
:1001000000000000000000000000000000000000EF
:1001100000000000000000000000000000000000DF
:1001200000000000000000000000000000000000CF
:1001300000000000000000000000000000000000BF
:1001400000000000000000000000000000000000AF
:10015000000000000000000000000000000000009F
:10016000000000000000000000000000000000008F
:10017000000000000000000000000000000000007F
:10018000000000000000000000000000000000006F
:10019000000000000000000000000000000000005F
:1001A000000000000000000000000000000000004F
:1001B000000000000000000000000000000000003F
:1001C000000000000000000000000000000000002F
:1001D000000000000000000000000000000000001F
:1001E000000000000000000000000000000000000F
:1001F00000000000000000000000000000000000FF
:10020000DFF80CD000F08AF900480047FD460E00E8
:100210001859002080F308888E46104730B450E803
:10022000012F93B2C48923448489A34228BF1B1B96
:100230000489A34202BFBFF32F8F002007E0C3EA67
:10024000020340E80134002CE9D14FF001000A60BC
:1002500030BC704750E8012FC2EA024240E8012159
:100260000029F7D1704730B450E8022F1FFAA2F3EB
:10027000C488A34202BFBFF32F8F00200DE0C489C2
:1002800023448489A34228BF1B1BC2EA034340E8DE
:100290000234002CE8D14FF001000A6030BC7047F6
:1002A00050E8022FC2EA224240E802210029F7D199
:1002B0007047034653E8022FD988B2EB324F4FF014
:1002C000000017BF92B241EA014142EA014104E055
:1002D0005A68B2EB324F08BF012043E80212002AED
:1002E000E8D1704730B4044654E8000F0D4644E8A6
:1002F0000053002BF8D1156030BC704730B4044671
:1003000054E8000F40EA010544E80053002BF7D100
:10031000156030BC704730B4044654E8000F00EA62
:10032000010544E80053002BF7D1156030BC70473D
:1003300030B4044654E8000F80EA010544E8005355
:10034000002BF7D1156030BC704730B4044654E838
:10035000000F00EB010544E80053002BF7D11560B6
:1003600030BC704730B4044654E8000FA0EB0105E0
:1003700044E80053002BF7D1156030BC704770B4CF
:1003800004464FF0000054E8006F0D68AE4207BF0E
:1003900044E80023012044E800630E60002B1CBFEA
:1003A0000020F0E770BC704730B4044654E8000FFA
:1003B00088422CBF451A054644E80053002BF5D16E
:1003C000156030BC7047000006488047064800476B
:1003D000FEE7FEE7FEE7FEE7FEE7FEE7FEE7FEE7F5
:1003E000FEE7FEE70D1A0E0001020E002DE9F05F98
:1003F0000546002092469B46884606468146402494
:100400001BE0284641464746224600F076F8534610
:100410005A46C01A914110D311461846224600F0A0
:1004200016F82D1A67EB01084F46224601200021DD
:1004300000F00DF817EB00094E41201EA4F1010455
:10044000DFDC484631462A464346BDE8F09F202A75
:1004500004DB203A00FA02F1002070479140C2F11B
:10046000200320FA03F319439040704710B5441A53
:100470000346944209D28418114403E011F8013D67
:1004800004F8013D521EF9D210BD40EA0104A40750
:1004900003D009E010C9121F10C3042AFAD203E0E6
:1004A00011F8014B03F8014B521EF9D210BDD2B224
:1004B00001E000F8012B491EFBD270470022F6E74D
:1004C00010B513460A4604461946FFF7F0FF2046CA
:1004D00010BD421C10F8011B0029FBD1801A704787
:1004E00030B504460020034600E05B1C934203D273
:1004F000E05CCD5C401BF8D030BD202A04DB203A04
:1005000021FA02F00021704721FA02F3D040C2F133
:10051000200291400843194670470000064C074DE1
:1005200006E0E06840F0010394E8070098471034C3
:10053000AC42F6D3FFF768FEDC8A0E00FC8A0E00A0
:10054000054B4FF0FF321A6053F8042C034B1A602E
:100550001A68034B1A60704704BA0250143900201D
:1005600008BA025001EB820204388A4201D100200D
:10057000704752F8043D1BBA40F8043FF5E700000D
:1005800000B5374B8FB019461A680092009AD2070F
:10059000FAD5344B344A1A600A680192019AD0079E
:1005A000FAD5324A1A600A680292029AD207FAD53C
:1005B0002F4A1A600A680392039AD007FAD52D4A87
:1005C0001A600A680492049AD207FAD52A4A1A6075
:1005D0000A680592059AD007FAD5284A1A600A686F
:1005E0000692069AD207FAD5254A1A600A68079237
:1005F000079AD007FAD5234A1A600A680892089A1F
:10060000D207FAD5204A1A600A680992099AD007D7
:10061000FAD51E4A1A600A680A920A9AD207FAD5CF
:100620001B4A1A6008680B900B98C007FAD51A602D
:100630000A680C920C9AD007FAD5164A1A600A6812
:100640000D920D9AD207FAD5134A1A600E210D2386
:100650000F22002000F088FD0FB05DF804FB00BF02
:10066000B0B0025080B0025080430129406339216C
:10067000807001298020542100D13490C0403490F2
:10068000C0302029C0530D9000413890832308C802
:1006900080E3102100413821CF4308C810B5504BEA
:1006A00096B01C461A680192019AD207FAD54D4BB2
:1006B0004D4A1A6022680292029AD207FAD54B4A32
:1006C0001A604B4A42EA804022680392039AD2079A
:1006D000FAD5186022680492049AD007FAD5454AE0
:1006E0001A60A2F5800242EA814122680592059AC9
:1006F000D207FAD5196022680692069AD007FAD571
:100700003D4A1A6022680792079AD107FAD53B4AF8
:100710001A6022680892089AD207FAD5384A1A60F5
:1007200022680992099AD007FAD5364A1A602268D7
:100730000A920A9AD107FAD5334A1A6022680B92B4
:100740000B9AD207FAD5314A1A6022680C920C9A99
:10075000D007FAD52E4A1A6022680D920D9AD10759
:10076000FAD52C4A1A6022680E920E9AD207FAD550
:10077000294A1A6022680F920F9AD007FAD5274AA1
:100780001A60216810911099C907FAD51A60144BA4
:100790001A46196811911199C807FAD5114B2049C9
:1007A0001960116812911299C907FAD51D4919608B
:1007B000116813911399CC07FAD50B491960116888
:1007C00014911499C807FAD5174919601168159141
:1007D0001599C907FAD5154A1A6016B010BD00BFA1
:1007E000B0B0025080B002504004419000862929E8
:1007F000D81001C8401441904014212940146521AB
:100800000034409000310C90C0400C90C030202942
:1008100040960D9000416090031645C80086112156
:1008200000416021594644C84014459040142D9021
:10083000F0B5464B89B01D461C680194019CE40745
:10084000FAD5434BDFF810C1DFF810E113449B00E9
:100850000A181B681E2A88BFC0F11E011F330A1820
:100860005B095A43B2F5806F88BF4FF480614FF047
:10087000000484BFB1FBF3F1091A00F1A05000F5A8
:100880002C402746A14233DC2A680492049AD207FE
:10089000FAD5304A1268296805910599CF07FAD52B
:1008A0002D482E4C0260002216469A4202F10101A8
:1008B00040D12A4C134621F0010100268B423CD343
:1008C0002B680693069BDE07FAD5254B1B682C6820
:1008D0000794079CE407FAD5036000231F481C46D1
:1008E0009A422DD11D4A00208B422CD309B0F0BD75
:1008F0002A680292029AD207FAD502199200126867
:100900002E680396039EF607FAD5CCF80020002245
:100910009A4202F1010206D11E4622F001029642DD
:1009200004D30134AEE7CEF80070F1E7CEF80070E2
:100930000136F4E726600A46B7E726600133BDE7D3
:1009400004600133CCE710600133CDE7B4B002504E
:1009500024AC00147CB00250D4B00250D8B0025085
:1009600078B00250F0B5294D85B02C462E6800961F
:10097000009EF607FAD500F1A05000F52C4080004B
:100980000568206801900198C707FAD52048214FD3
:10099000056002EB8306B24229D15A1C1D4E22F09B
:1009A00001020027934227D323680293029BDE07AC
:1009B000FAD5194B0B449B001B681F335B099A4205
:1009C00013D2216803910399C907FAD51544002170
:1009D0009B1A104A05600846994210D35A1C0D49CB
:1009E00022F00102002093420CD305B0F0BD52F872
:1009F00004EBC7F800E0CEE737600133D2E71060C0
:100A00000131E9E708600133EDE700BFB4B00250FF
:100A1000D4B00250D8B0025024AC001410B5494BE9
:100A200094B019461A680092009AD207FAD5464B3C
:100A3000464A1A600A680192019AD407FAD5444AD4
:100A40001A600A680292029AD007FAD541481860E3
:100A50000A680392039AD207FAD53F4A1A600A68D5
:100A60000492049AD407FAD53C4A1A600A6805929F
:100A7000059AD207FAD53A4A1A600A680692069A87
:100A8000D407FAD5374A1A600A680792079AD2073C
:100A9000FAD5354A1A600A680892089AD407FAD536
:100AA000324A1A600A680992099AD207FAD5304A7E
:100AB0001A600A680A920A9AD407FAD52D4A1A606F
:100AC0000A680B920B9AD207FAD52B4A1A600A6869
:100AD0000C920C9AD407FAD5284A1A600A680D922B
:100AE0000D9AD207FAD5264A1A600A680E920E9A13
:100AF000D407FAD5234A1A600A680F920F9AD207D0
:100B0000FAD5214A1A600F4B19461C681094109CA4
:100B1000E407FAD50C4B1860086811901198C407C7
:100B2000FAD51A600A681292129AD007FAD5174AB3
:100B30001A600A681392139AD207FAD5144A1A60F7
:100B400014B010BDB0B0025080B00250809065214A
:100B500000040990409665908080612180200821E2
:100B60008020649000816190004610210081112155
:100B70000041442180202029024610C80086092116
:100B80008020602140212829409665214096252912
:100B9000594614C810B5544B98B019461A680192BA
:100BA000019AD207FAD5514B514A1A600A6802924B
:100BB000029AD407FAD54F4A1A600A680392039A38
:100BC000D007FAD54C4818600A680492049AD207F4
:100BD000FAD54A4A1A600A680592059AD407FAD5E6
:100BE000474A1A600A680692069AD207FAD5454A19
:100BF0001A600A680792079AD407FAD5424A1A601F
:100C00000A680892089AD207FAD5404A1A600A6818
:100C10000992099AD407FAD53D4A1A600A680A92DD
:100C20000A9AD207FAD53B4A1A600A680B920B9AC5
:100C3000D407FAD5384A1A600A680C920C9AD2077F
:100C4000FAD5364A1A600A680D920D9AD407FAD579
:100C5000334A1A600A680E920E9AD207FAD5314AC0
:100C60001A600A680F920F9AD407FAD52E4A1A60B2
:100C70000A681092109AD207FAD52C4A1A601A4BB9
:100C800019461C681194119CE407FAD5174B18609B
:100C9000086812901298C407FAD51A600A6813926D
:100CA000139AD007FAD5124A1A600A681492149A55
:100CB000D207FAD51E4A1A600A681592159AD40707
:100CC000FAD51C4A1A600A681692169AD007FAD505
:100CD000194A1A600A681792179AD207FAD5174A62
:100CE0001A6018B010BD00BFB0B0025080B0025002
:100CF0000093652100043190409665900083612146
:100D000000C3302100C3649000816190004610212F
:100D1000008111210041442100C320290C4610C844
:100D20000086312100C3602140C1282940966521F9
:100D30000013319040962529594614C84004324981
:100D40002DE9F041814B1D6898682033A0B01E4604
:100D50001A680192019AD707FAD57D4B7D4A1A602D
:100D600032680292029AD407FAD57B4A1A607B4A0B
:100D70001446116803910399C907FAD5784A116896
:100D8000C1F3402137680497049FFF07FAD5754FD8
:100D90001F6027680597059FFF07FAD51768002988
:100DA00000F0CF80B90540F1CC80316806910699FA
:100DB000CF07FAD56C491960216807910799C907CF
:100DC000FAD51168C1F3402137680897089FFF07DB
:100DD000FAD5664F1F6027680997099FFF07FAD564
:100DE0001268002900F0AF80910540F1AC803268B4
:100DF0000A920A9AD207FAD5564A1A6032680B92BA
:100E00000B9AD707FAD55A4A1A6031680C910C9997
:100E1000CC07FAD55749196031680D910D99C9076A
:100E2000FAD55549196031680E910E99CF07FAD558
:100E30005249196031680F910F99CC07FAD5504982
:100E40001960504B1E46196810911099C907FAD5C0
:100E50003F4C4D4B236033681193119BDB07FAD550
:100E60004A4B236033681293129BDF07FAD5484B35
:100E700023603A4B9846196813911399C907FAD51C
:100E8000324F386033681493149BDB07FAD5226025
:100E900033681593159BD807FAD53E4B236033680A
:100EA0001693169BD907FAD53B4B236033681793EB
:100EB000179BDA07FAD5394B236033681893189BD0
:100EC000DB07FAD5364B236033681993199BD80793
:100ED000FAD5344B236033681A931A9BD907FAD595
:100EE000314B236033681B931B9BDA07FAD52F4BDA
:100EF000236000F0D3F908BBD8F800301C931C9B8A
:100F0000DB07F9D53D6033681D931D9BD907FAD5E2
:100F1000274B236033681E931E9BDA07FAD5254BB7
:100F20002360D8F800301F931F9BDB07F9D50C4BCB
:100F30001B6813F4805F204B08BF184620B0BDE843
:100F4000F0811E48FAE71E48F8E700BF90B0025053
:100F500080B0025000100251C01F7229B4B002507C
:100F600088B00250C0CF0129C01F0E29C03F002900
:100F700040010249003184A800001649400108A13F
:100F800080440888B0B00250C044708880077A411D
:100F9000C0077E4100006A498006164940006E493C
:100FA0000002002100822021408220218082242111
:100FB00040A161A100C861510308F1000108F100DE
:100FC0000208F10008B540B1202801464FF00702A1
:100FD00028BF20210020FFF72BFC024B00221A60C3
:100FE00008BD00BF1CB802507FB51C681CB901F0D9
:100FF0001F041F2C27D1174C254626680196019EF9
:10100000F607FAD500F1A05000F52C4080000068EA
:101010002C680394039CE407FAD50F4C00EB611095
:1010200020600E4801F01F04006802901F2C18BFBA
:10103000C94302980FBF106001F01F0100FA01F1CF
:1010400011600021196010684300C00F136004B0E4
:1010500070BD00BFB4B00250E4B00250DCB002502A
:1010600030B51E4B85B01A46196800910099CC071F
:10107000FAD500F1A05000F52C40800001681368FB
:101080000193019BD807FAD5154B164C1868164DDD
:101090001F30202390FBF3F00138002810DA0023E2
:1010A0000130400153B1A0F120014FF00042134242
:1010B00004D1013881424FEA5202F8D105B030BD67
:1010C00013680393039BDB07FAD5431823602B684F
:1010D0000293029B002BE3D10138DEE7B4B002504B
:1010E000ACB00250E4B00250DCB002500A4600211D
:1010F000AFF3008038B5A0F12003B3F5426F054689
:101100002CD88F2826D800F1470300F16604DB06AF
:101110004FEA541400D0013464013F34A40901346F
:1011200011B1A1421AD30C46E3004FF48050B0FB3A
:10113000F3F0202828BF202002B11060084B0122C4
:101140001A60214600F068F82846214600F088F829
:10115000002038BD00F11F046409DDE7014838BDF7
:101160001CB802502221F00070B5264888B0054610
:1011700004680094009CE607FAD52348234C0460D9
:10118000234C44EA83432C680194019CE407FAD57C
:101190000360930143EA824242F0104444F4C044A5
:1011A0002B680293029BDE07FAD504602B68039339
:1011B000039BDB07FAD5174B03608B0143EA8141A0
:1011C00041F0104343F4C0432E680496049EF60792
:1011D000FAD503602B680593059BDE07FAD50460FA
:1011E00041F058412B680693069BDC07FAD5016055
:1011F00042F058422B680793079BDB07FAD5026041
:1012000008B070BDB0B0025080B00250C0210229B9
:10121000807100988061189030B500220C4C490014
:101220001346023840F6FC75904202F10102CABF33
:10123000236025605B181E2A04F10404F4D1054ADA
:1012400019441360044B054A19609A6030BD00BF11
:1012500000B0025078B002507CB0025020F80F006D
:101260000C4B18603F3020F03F008901403058603F
:101270009960D9601961596199611C3306481960F8
:1012800082B002680192019AD207FAD5196002B0C1
:10129000704700BF90B00250B4B002502DE9F04149
:1012A00092B0012303930493624B1D461A68059282
:1012B000059AD207FAD5604C604B2360604B194603
:1012C0001A680692069AD707FAD55E4B1A68D604B2
:1012D00000F1A8802A680792079AD007FAD55A4ADF
:1012E00022600A680892089AD207FAD51E68C6F3E7
:1012F0000036002E40F098801220FFF7B1FE07461E
:101300001320FFF7ADFE87428CBF12201320FFF79A
:10131000A7FE471EFFF734F903AB01AA3946122096
:10132000FFF762FE04AB804602AA39461320FFF79E
:101330005BFE00EB4800022832D003283ED0012893
:1013400074D12B680993099BDB07FAD53F4B2360C7
:101350002B680A930A9BD807FAD53D4B23602B686C
:101360000F930F9BD907FAD53A4B23602B68109344
:10137000109BDA07FAD5384B23602B681193119B29
:10138000DB07FAD5354B2360013F25D51023192201
:1013900018210020FFF7E8FE304612B0BDE8F081CA
:1013A0002B680B930B9BD907FAD52D4B23602B6829
:1013B0000C930C9BDA07FAD52A4BCFE72B680D93D9
:1013C0000D9BDB07FAD5284B23602B680E930E9BF1
:1013D000D807FAD5254BC1E703AB01AA394612203D
:1013E000FFF702FE04AB044602AA39461320FFF7BA
:1013F000FBFD10EB440402D1FFF7CCFBC4E7FFF781
:101400000DFB022C08D0032C09D0012C10D1172180
:101410001620FFF743F9B7E715211420F9E70F214C
:101420000E20F6E7124EB7E7124EB5E7124EB3E7BD
:10143000124EB1E7B0B0025080B0025000084A51DD
:10144000B4B0025088B0025000084E5100065A490C
:1014500040065E49000442410014424940042E49BE
:10146000000652494006564900063A4940063E49A0
:101470000608F1000708F1000408F1000508F10072
:10148000014B1860704700BF08BA0250014B18604A
:10149000704700BF04BA0250094BC2431A60043BB4
:1014A00082B01B680193074B019A104204D0064A90
:1014B0001060186802B0704720BF1A680192F3E705
:1014C00004BA02501439002008BA0250FEF7CEBF09
:1014D000FEF7F6BF0A460021FEF7F2BF2DE9F743FB
:1014E00005460E469946114600F060FA044600286B
:1014F00040F08480002E00F08580002900F0848078
:10150000B9F1200F40F0828005F14404082205F172
:1015100004082046FFF726F805F124070822314683
:101520004046FFF71FF806F1200108223846FFF772
:1015300019F802A94FF4807041F8049DFFF7D6FD19
:10154000002865D1334A4FF4807313600121936002
:101550000823314AFFF706FA0121084605232F4ADE
:10156000FFF700FA0823424601211C20FFF7FAF991
:1015700008233A4601210320FFF7F4F92246082305
:1015800001210220FFF7EEF90823254A01211A2044
:10159000FFF7E8F90523234A01211B20FFF7E2F9B1
:1015A0000823214A01211420FFF7DCF908231F4AF0
:1015B00001211520FFF7D6F9082305F16402012166
:1015C0001620FFF7CFF9082305F184020121172027
:1015D000FFF7C8F90823164A01210B20FFF7C2F9CB
:1015E000FFF7AEFB04460198FFF7ECFC114B002C13
:1015F00018BF1C46A4212846FFF76CFF204603B005
:10160000BDE8F0830C4CF9E70C4CF7E70C4CF5E720
:10161000084CEFE790B00250508A0E00C88A0E00C6
:10162000108A0E00B48A0E00748A0E00948A0E008E
:10163000308A0E008408F0007608F0008008F00080
:101640008108F00038B50D460446B0B1A022002153
:101650000430FFF73DFF95B12946082204F16400EC
:10166000FEF780FF082205F1200104F18400FEF757
:1016700079FF044B2360002038BD034838BD034880
:1016800038BD00BFDD55AABB7108F0008308F0002B
:101690002DE9F041069F044615461E46FFF7D2FF8E
:1016A00038B93B46324629462046BDE8F041FFF7AF
:1016B00015BFBDE8F08100002DE9FF41144B044641
:1016C0000E460FCB8DE80F00204600F07FF98046D4
:1016D000B0B9CEB1636A251D01953BB901236362A0
:1016E000226F04F13001684600F088F82B46043E72
:1016F000243453F8042B12BAA34246F8042FF8D12D
:10170000404604B0BDE8F081DFF80880F8E700BF8C
:10171000E0890E000502F00038B5044668B1051DE9
:1017200028467021FFF7D6FE284620220449FFF7FD
:10173000CDFE044B2360002038BD034838BD00BFF8
:10174000F0890E00DD55AABB0002F000294B2DE9FF
:10175000F04304460E4615460FCB85B06F468DE824
:101760000F002DB94FF00009484605B0BDE8F083E1
:10177000204600F02BF981460028F5D1231D019366
:10178000636AA3BB236F8BB1C3F14008A84528BF90
:10179000A84604F13000314618444246FFF796FE51
:1017A000236F434446442367A5EB0805226F402A74
:1017B00006D104F13001384600F020F800232367F9
:1017C00005F03F0835F03F0505D031462A4638463A
:1017D00000F014F82E44B8F1000FC3D04246314651
:1017E00004F13000FFF772FEC4F87080BCE7DFF848
:1017F0000890B9E7E0890E000C02F0002DE9F74FE0
:10180000314B44688046924699461A68002AFCD1BA
:101810002E4B9B461A68002AFCD14FF0FF300191F5
:10182000FFF72EFE8020FFF731FE294D294A2A4F6F
:101830002A4E012307202B60A2F59E72C2F83C01BC
:101840001360636A3B60A36A3360D8F8003042F8E3
:10185000043CD8F80830204698470199D9F8003060
:10186000002BFBD1BAF1000F20D11D4B04221A60CE
:10187000D9F80030002BFBD1DBF800A0BAF1000F43
:10188000FAD1D8F80C30204698473B686362336839
:10189000A362144BC3F800A0C3F844A1D9F80030E8
:1018A000002BFBD12B6003B0BDE8F08F236A012B26
:1018B00004BF0C4A13600C4B40201960C3F804A00D
:1018C000FFF7EAFDD4E700BF10B9025020BC025078
:1018D00018B8025000B90250CCB70250D0B702502D
:1018E000C8B7025084B6025028BC0250084B1B688F
:1018F0001B0EF02B08D1074B1A68074B9A4205D1F3
:10190000064B00201860704705207047062070477E
:1019100028B9025024BA02500000E0200CBA02504C
:101920000C4B1B68C3610C4B1B6883610B4B1B6822
:1019300043610B4B1B6803610A4B1B68C3600A4B76
:101940001B688360094B1B684360094B1B6803607D
:10195000704700BF5CB6025058B6025054B60250F1
:1019600050B602504CB6025048B6025044B602502F
:1019700040B602500C4BC2691A60826943F8042CCD
:10198000426943F8082C026943F80C2CC26843F8FA
:10199000102C826843F8142C426843F8182C026813
:1019A00043F81C2C704700BF5CB6025030B102688F
:1019B000034B04489A4208BF002070470248704712
:1019C000DD55AABB8208F0007108F00030B1026852
:1019D000034B04489A4208BF0020704702487047F2
:1019E000DD55AABB0202F0000002F00010B504F0C1
:1019F0005DFEBDE8104004F0FDBD00000249024854
:101A0000091F096800680847F000002030B54FF052
:101A1000805000228300D0F83011C3F80C21C3F8A5
:101A20001021624B1A60624B1B68624C2360604B52
:101A30001B1D1B68241D23605D4B08331B68241D80
:101A400023605B4B0C331B68241D2360584B103301
:101A50001B68241D2360564B14331B68241D236010
:101A6000534B18331B68534C20342360504B1C33AA
:101A70001B68241D23604E4B20331B68241D2360EC
:101A80004B4B24331B68241D2360494B28331B68B0
:101A9000241D2360464B2C331B68241D2360444BBC
:101AA00030331B68434C40342360414B34331B6854
:101AB000241D23603E4B38331B68241D23603C4BA0
:101AC0003C331B68241D2360394B40331B68241DA5
:101AD00023600124082902D1D0F8343113B1082938
:101AE00004D006E0354B3449196005E0D0F83431B4
:101AF00013B1082904D006E0314BFB21196005E041
:101B0000D0F8343113B1082908D00EE090F85832DB
:101B10002C48016863F30301016002E0D0F834311E
:101B20001BB929494FF40070086028480168C907AB
:101B300002D06FF0010101602548016841F4700195
:101B40000160BFF34F8FBFF36F8F4FF01021D1F8BB
:101B50000002002803DBD1F80402002822DA1D4B22
:101B60001C601D480468002CFCD01224C1F80042FF
:101B70000568002DFCD0C1F8044201680029FCD0A2
:101B80001A6001680029FCD0BFF34F8F10487C38E1
:101B90000168124A01F4E06111430160BFF34F8F05
:101BA00000BFFDE70F490E48086030BD3805004012
:101BB0000404001020C50040488103008C560040FA
:101BC00018F50040E40E004040960240000400403A
:101BD00088ED00E004E5014000E401400400FA055E
:101BE0000090D003100100202DE9F05F5448D0F898
:101BF000045300242E464FF0010913E096FAA6F094
:101C0000B0FA80F7B80000F58070804604F06CFCF4
:101C100028B1404604F070FC09FA07F0044309FAC1
:101C200007F08643002EE9D104F0D2F8002869D0ED
:101C3000444AD078F0BBA00264D5434940F2A97869
:101C4000C1F80080081D036813F0FF0C02D0036880
:101C500003EA0C0C40F2AA7AC1F800A0036813F062
:101C6000FF0301D00668334040F2AB7BC1F800B0FF
:101C7000066816F0FF0601D007683E4040F2AC77D8
:101C80000F60076817EA0C0709D0D2F810C04CEAB9
:101C9000070CC2F810C0C1F800800760076840F266
:101CA000AD770F6007681F4009D0136943EA074307
:101CB000136100E026E0C1F800A00760036840F26D
:101CC000AE730B60036833400BD0DE0701D044F4E1
:101CD0000004DE0601D544F00104C1F800B0036041
:101CE0000068106930F0011102D005F080710C43DA
:101CF00010F0011F06D0690504D520F0011044F44E
:101D000080641061C4F3C05624F400044F46DFF829
:101D10003C8009E094FAA4F0B0FA80F558F8250068
:101D2000804707FA05F08443002CF3D106F0E8F968
:101D3000002E03D0BDE8F05F02F04EBABDE8F09F80
:101D400000700240480000200078024028870E0002
:101D5000034808B5002101600068009008BD00003C
:101D600000010140C11700EBD161074B4A1153F844
:101D7000222021F01F01411A01208840024201D097
:101D8000012070470020704700E100E00FB41CB54F
:101D90000A46521ECDE9000207A9054B6A4606987D
:101DA00000F018F8009A002111701CBC5DF814FBBB
:101DB00037220E0002E008C8121F08C1002AFAD11B
:101DC00070477047002001E001C1121F002AFBD1BB
:101DD000704700002DE9FF4F8DB00F4605460026E5
:101DE00006E025280BD0DDE90F1290476D1C761C0C
:101DF00028780028F5D111B03046BDE8F08F0024D6
:101E0000A246A1460122EC4900E0044315F8013F37
:101E1000203B02FA03F00842F7D128782A2810D094
:101E20006FF02F022878A0F13001092914D80AEBAD
:101E30008A0102EB410144F0020400EB010A6D1C2F
:101E4000F0E701CF5FEA000A03D544F40054CAF179
:101E5000000A44F002046D1C28782E2817D115F8CA
:101E6000010F44F004042A280ED06FF02F022878C6
:101E7000A0F1300109290AD809EB890102EB4101DF
:101E800000EB01096D1CF2E757F8049B6D1C2878E4
:101E90006C280FD006DC4C2817D068280DD06A2893
:101EA00014D104E0742810D07A280FD10DE044F446
:101EB00000140AE044F4801401E044F4401469780A
:101EC000814202D104F580146D1C6D1C2A786E2AA3
:101ED0001FD00CDC632A31D004DC002A8BD0582AB6
:101EE00011D1A3E0642A68D0692A0CD165E0732A75
:101EF0002ED004DC6F2A73D0702A04D19BE0752A9F
:101F00006FD0782A6ED01046DDE90F129047761C0C
:101F100050E1C4F30250022806D0032809D0042857
:101F200001CF09D0066045E101CFF117C0E900619A
:101F300040E101CF06803DE106703BE117F8040B5C
:101F40008DF8000000208DF80100EB46012003E031
:101F500057F804BB4FF0FF3061074FF0000102D487
:101F60000DE008F10101884649450FDA8045F8DBAC
:101F70001BF808100029F4D108E008F10101884697
:101F80008142FADB1BF808100029F6D1DDE90F23A6
:101F9000AAEB08008146214600F036F9304400EBF8
:101FA000080604E0DDE90F121BF8010B9047B8F1B9
:101FB0000108F7D221464846F7E00A21C4F302534C
:101FC0004FF0000B0891022B04D001CFC117032B57
:101FD00009D00AE0FF1D27F00707F7E8020108E033
:101FE00032E01FE020E000B2C117042B01D140B263
:101FF000C117031E71F1000307DA4FF0000CD0EB9C
:102000000C006CEB01012D2302E0230504D52B23EA
:102010008DF82430012303E0E30701D02023F7E704
:10202000984658E00A2110E010210EE010204FF0F1
:10203000000B08900CE010214FF0000B44F004045A
:102040004FF00809089103E008214FF0000B0891B8
:10205000C4F30253022B04D001CF0021032B06D07E
:1020600006E0FF1D27F00707F7E8020103E080B252
:10207000042B00D1C0B24FF0000823072BD5702AE3
:1020800007D0DDF820C08CF0100C5CEA0B0C05D0FA
:102090000EE040238DF82430012308E050EA0103CC
:1020A00006D030238DF824308DF825200223984661
:1020B000DDF820C08CF0080C5CEA0B0C0BD150EA68
:1020C000010301D1630706D530238DF824304FF08A
:1020D0000108A9F10109582A04D038A20B9208AAD4
:1020E0000A920BE03AA2F9E75B46089AFEF77EF9FE
:1020F0000B9B9B5C0A9A521E0A92137050EA0102D3
:10210000F2D10A98ADEB000000F1200B600702D578
:1021100024F4803401E04FF00109D94502DDA9EB38
:102120000B0000E0002000EB0B0141440890AAEBFB
:10213000010AE00306D4DDE90F232146504600F0F2
:1021400063F806444FF0000908E009A911F80900F6
:10215000DDE90F12904709F10109761CC145F4DB56
:10216000E0030CD5DDE90F232146504600F04CF882
:10217000064404E0DDE90F1230209047761C0899F0
:10218000481E08900029F5DC08E00A980A990078B2
:10219000491C0A91DDE90F129047761CBBF1000142
:1021A000ABF1010BF1DC21465046DDE90F2300F0D5
:1021B00019F806446D1C1BE6092801003031323342
:1021C0003435363738396162636465660000000073
:1021D000303132333435363738394142434445465D
:1021E000000000002DE9F041044600251E46174678
:1021F000880404D405E039462020B0476D1C641ED5
:10220000F9D52846BDE8F0812DE9F04104460025C6
:102210001E469046C80301D5302700E020278804D9
:1022200004D505E041463846B0476D1C641EF9D51B
:102230002846BDE8F0814A68002A06D00A68531C87
:102240000B6010704868401E48607047800701D0DE
:102250000020704701207047C3688B4206D81144A4
:102260000069491E814201D8012070470020704753
:1022700070B5104CA66C656A02F016FE216B08441E
:102280006A1A3144814200D10022082302F0BAF8D0
:1022900006000DD102F008FE0022294601F00EFCD6
:1022A000A16A814203D10121A561C4E90701304639
:1022B00070BD0000EC16002004F014FB2DE9F0477F
:1022C000244C8146924660880E4681423FD84FF6A4
:1022D000FF77002000F056FE22786078A1888842BF
:1022E00001DA401C00E00020C0B2904203D100207F
:1022F00000F04AFE29E065784FF0000860788842D7
:1023000001DA401C00E000206070002000F03CFE7C
:10231000BD421AD0A068B9F1000F40F835A00DD029
:1023200066B16188E068324605FB01004946FEF768
:102330009DF8A06800EBC500868003E000EBC500B7
:10234000A0F804800020BDE8F0870420FBE7092006
:10235000F9E700007800002010B50E4C03E0401CA7
:1023600000E00020207020786178814210D022782F
:102370006188E068A36802FB010003EBC20153F827
:102380003220898890472078A1888842E9DAE6E7F8
:1023900010BD00007800002030B5CB0008339DB29E
:1023A00093074FF0000401D0072030BD044B9A6022
:1023B0002A44DA605C701C7058809980002030BD1F
:1023C000780000203AB100680129C26000D00021E5
:1023D00081600020704707207047000038B50E4824
:1023E00008235822416800910C49006802F0A4F9C2
:1023F00000280FD10A4A69460A4801F00BFD040083
:1024000008D10121074801F050FD06490120083993
:102410000870204638BD0000C4870E00181E00203A
:10242000DD740E009000002070B504460A480D4689
:10243000814201D9072070BD0848226101F0E6FC05
:1024400028446060A06800B1A5602146BDE87040E6
:10245000002005F0E3BC000017FCFF009000002006
:10246000014600200875012005F0D8BC70B505466E
:102470000548446805E02946204601F0DFFA206857
:102480000468002CF7D170BD9C00002070B509488D
:1024900044680CE0267A002505E02946204600F035
:1024A00003FC6D1CEDB2B542F7D320680468002C24
:1024B000F0D170BD9C00002070B50A4844680DE062
:1024C000267A002506E000222946204600F02AFC54
:1024D0006D1CEDB2B542F6D320680468002CEFD134
:1024E00070BD00009C00002070B50849054606201C
:1024F0004C6807E02946204601F0A0FA062803D1DF
:1025000021680C68002CF5D170BD00009C000020F3
:102510002DE9FC41046806461546207F08340F4625
:10252000C0070DD0002000F02DFDA06950B1206A39
:10253000D8B31124002000F027FD2046BDE8FC811F
:102540000820FBE7E06EA8420DD32A463846A16E6C
:10255000FDF78CFFE06E401BE066A06E65672844C7
:10256000A0660024E6E7C4E90675304601F0CDFA1E
:10257000054610480069CDE90004E26E6AB1A16E1B
:10258000A069FDF773FFE16EE069401AE061A069A0
:102590000844A0610020C4E91B016946284600F0F8
:1025A00057FA0400C6D19224C4E7FFE7C4E90875CE
:1025B000F9E7000024880E003EB50D460168144678
:1025C000097F11F0010F09D001F096FA0021009562
:1025D000CDE90141694600F061FA3EBD08203EBDEB
:1025E000F8B5044600250FE0002705E0007800F06C
:1025F00043FA08B11120F8BD3946781CC7B23046FD
:1026000000F09CF80028F1D12946681CC5B220468C
:1026100000F0A6F80600E7D100250DE0002703E052
:102620000078214600F02DFA3946781CC7B23046B2
:1026300000F084F80028F3D12946681CC5B2204672
:1026400000F08EF80600E9D1074800E0086801684C
:102650000029FBD104600548694640690090606824
:10266000026820469047F8BDA0000020D8870E00E1
:102670002DE9F04F87B04FF000081D46934689467C
:102680000446DDF840A04646CDF80C8000E0761CFC
:102690006068012300224768214603A8B847002844
:1026A000F5D140468DF800800027B84601903BE008
:1026B000606801236A46D0F804C0214601A8E047BB
:1026C0006068012305AAD0F804C0214601A8E047AC
:1026D0009DF8141049451AD1D84514D19DF8000031
:1026E000CAF8000005F8010B6A1C85F800906068C4
:1026F0009DF800302146456801A89B1EA847002090
:1027000007B0BDE8F08F08F1010000F0FF08606835
:102710009DF800300022D0F804C0214601A89B1E7D
:10272000E0479DF800000744B742C1D30520E7E722
:1027300001484068704700009C00002042788A42AF
:1027400001D80020704782781044084470474278CE
:102750008A4201D8002070478278104408447047AC
:10276000027A8A4201D80020704701EB410109300A
:1027700008447047027A8A4201D80020704701EB72
:10278000410109300844704702484078002800D0D1
:10279000012070479C00002070B50D460978062482
:1027A00001260F293DD2DFE801F03C080C0E3C1A4F
:1027B0002B3C3C3C3C0C1E202900032005F0D4FBA4
:1027C0002FE000242DE0284801F0F8FF0028F8D081
:1027D00026480660BFF36F8FBFF34F8FF1E700F01D
:1027E00065F804461DE0002005E02148006810F06F
:1027F000010F03D0022005F0B7FBE2E70120FAE762
:10280000E87803280DD01849091D0A6832B1002361
:102810000B6049689047040005D000E00E2403F0E7
:10282000F9FB204670BD05F04DFB28B1A8780028C3
:10283000F7D103F0B2FBF4E70E480078082810D176
:102840000C48001D007800070BD10A4808300078BA
:1028500010F0F00F05D107480C30007810F0F00FA1
:10286000DFD003F097FBDCE7C00000205C70024083
:1028700038040040E00F00F0024A0146D2E90002AD
:1028800010470000B81E002070B50C46054603F046
:102890007BFBA84201D0102070BD0348D4E9001290
:1028A000C0E90212002070BDBC0000207FB50546C3
:1028B00005208DF8000006240DF1010003F082FBD5
:1028C00005F000FB2949002008609DF8010010F088
:1028D0001F0006D001280FD0022826D0032833D1AC
:1028E00006E06946284604F023FF044606282AD15C
:1028F0006846FFF7F9FD25E09DF8050003A900F003
:10290000EFF9050008D06A469DF80C1000F0C8F9F0
:102910000446062802D016E0102415E06A469DF809
:102920000C10284605F024F80CE09DF8050001077E
:1029300005D0694600F058F80446062803D16846D9
:1029400004F080FF044624B103F064FB04B0204689
:1029500070BD05F0B7FA30B103F016FB0028F5D1D1
:1029600003F01BFBF2E703F015FBEFE7C4000020C8
:10297000FEB5C08814460E46A04201D2054600E0CE
:102980001546844207D2802003F02EF9B4FBF0F103
:1029900000FB114068B100200096CDE901500020F5
:1029A00000F0F0FA6946802000F078F8040002D0C8
:1029B00006E00120F0E705498020FFF765FF0446A7
:1029C000002000F0E1FA2046FEBD000054880E0011
:1029D00008B1402101600148704700000C1F002031
:1029E00002F0B4BF02F0CEBF10B50C46010600F0F5
:1029F0000F02092A09D200F00BF8006828B14168DB
:102A00000A682146BDE810401047102010BD0000A4
:102A1000010600F00F0001D5034901E002494831E9
:102A200001EBC00070470000701E002010B5044686
:102A300000F00F00082805D2204603F04FF820468A
:102A400003F002F92046BDE8104003F055B800003D
:102A500070B50C46054603F08FF818B105480078AC
:102A6000022801D0082070BD21462846BDE87040EC
:102A700003F084B89C00002010B5FFF7C9FF006880
:102A800010BD10B50C46FFF7C3FF04601CB16168B0
:102A90000968416010BD0021FBE7000070B50C46DD
:102AA000054603F069F818B105480078022801D0FE
:102AB000082070BD21462846BDE8704003F0EAB802
:102AC0009C0000200149096808470000001F002001
:102AD00070B501786B4C054609296FD007DC77D2B9
:102AE000DFE801F067779E808AA7AE76C30065486D
:102AF0008129007817D00DDC0A2971D00F2970D0F8
:102B0000802965D1052803D006283CD007285FD14D
:102B1000022081E082291BD0832936D0842957D115
:102B200003283AD03FE05848FFF7A6FE5648FFF783
:102B30009DFC0D2005F062FCA06810B95348007A96
:102B400000B1012003F06AFAFFF7A0FC012063E066
:102B5000FFF79CFC03F08EFA002005F083F84A484A
:102B6000401CFFF783FC4848401CFFF785FE0E2001
:102B700005F044FC207800F0EBF9002828D0BDE8EF
:102B8000704002F04BBE082046E0032820D103F03D
:102B90008FFA00281CD004203EE003F089FA10B11F
:102BA000042005F05FF803F00BFB002810D006208E
:102BB00032E0002005F022FCA46807E057E007E0BF
:102BC0002946204600F03AFF20684468002CF7D1DF
:102BD00070BDFFF75BFC022005F044F8012005E022
:102BE00047E02BE0052005F03DF8032005F006FC4A
:102BF0002846FFF741FE3FE0032005F0FFFB224897
:102C0000801CFFF739FE2048801CFFF72FFC20783E
:102C100006287FF47DAF0720BDE8704005F022B89C
:102C2000032005F01FF8022005F0E8FB2846FFF717
:102C30001DFC2846BDE87040FFF71EBE0F2019E0BE
:102C4000A878FFF7E5FED0E900232946104698470B
:102C50000028BDD0A8780107BAD000F00F010829DC
:102C6000B6D2BDE8704002F0CBBF082002E00920D8
:102C700000E00A2005F0C2FB2846BDE87040FFF7DF
:102C8000F5BB00009C000020E9870E00001F00201B
:102C9000FFF718BF0148FFF715BF0000D8870E00E7
:102CA000114642681368184770B5044640680D46DF
:102CB000C2680AB12046904720462946FFF750FDDA
:102CC00005464678002408E021462846FFF736FDF1
:102CD000007802F0E1FE641CE4B2B442F4D370BDAB
:102CE0002DE9F04180460E480E46456814E02F7AE3
:102CF00000240DE021462846FFF732FD01784145CA
:102D000004D106B134702846BDE8F081641CE4B2F9
:102D1000BC42EFD328680568002DE8D10020F3E716
:102D20009C00002070B50446406815460E46836836
:102D30001BB120469847062803D1204631460DB1E5
:102D4000072070BDFFF70CFD05464678002408E01B
:102D500021462846FFF7F2FC0078FFF767FE641C67
:102D6000E4B2B442F4D3002070BD034600205A6898
:102D70001269002A01D01846104770472DE9F84320
:102D800004462B4803F0ACF800284DD129490870BF
:102D90004860886048212848FDF790FB2648482174
:102DA0004830FDF78BFB2448244E80304CB194E82A
:102DB0000E00103080E80E001F489030016821B1ED
:102DC00005E006F12C010EC9F3E71D490160002062
:102DD00002F078FD18B1852801D0FFF76DFA194F80
:102DE00000250DE0002403E000783946FFF749FE96
:102DF0002146641CE4B24046FFF7A0FC0028F3D152
:102E000029466D1CEDB23846FFF7AAFC5FEA0008C0
:102E1000E8D1706800906946384600F00FFE040063
:102E200004D003F0BFF92046BDE8F8830020FBE79B
:102E3000912C0E009C000020701E0020D8870E00F0
:102E4000D12A0E0094880E0030B1012807D0022844
:102E500008D10548FFF736BE03480838FAE70248AC
:102E6000001FF7E770470000FA870E0010B503F067
:102E700083F810B103F076F808B1082010BD0448BB
:102E800002F030FD08B1FFF717FA002010BD000076
:102E900000880E0070B54FF0805086B0D0F8A810B2
:102EA000D0F8A40089B241F4404300900BA20D2158
:102EB00001A8FEF76BFF0C4E40F21A3001AD3080D6
:102EC000002404E0285D06EB4401641C4880284689
:102ED000FDF7FFFAA042F5D806B070BD2530345892
:102EE0002530385800000000641F0020074803E028
:102EF000016811F0010F07D00168C1F340010029FA
:102F0000F6D00348FFF7DEBD7047000038040040EC
:102F1000DD870E00034808B5806800906846FFF71B
:102F2000D1FD08BDD8870E00074918B1052803D385
:102F30000020704708687047044A105C0028FAD0E7
:102F400051F8200070470000D400002032890E00A4
:102F5000092808D2DFE800F007070507070505057F
:102F600005000120704700207047092808D2DFE8DB
:102F700000F007070507070707070500012070474E
:102F80000020704700F002B800F008B872B602489E
:102F90000168491C01607047E80000200349086887
:102FA000401E086000D162B670470000E8000020B3
:102FB000102802D31038C0B2704740F0800070472C
:102FC00070B50D480146456AC06A8C6CAC2802D1C8
:102FD000486B04442D1A2A4621460848FDF780FA1A
:102FE000002807D001F07EFD29462046BDE870404C
:102FF00002F09EB870BD0000EC16002000000E002C
:10300000BFF34F8F05480168054A01F4E0611143A1
:103010000160BFF34F8F00BFFDE700000CED00E043
:103020000400FA05094908B5085C0090684603F0F9
:103030007BF9D0F80425009B0121994021EA020385
:10304000C0F808351140C0F80C1508BD1C850E00ED
:1030500010B543689C18446021B905E013F8010BD2
:1030600001F8010B521EF9D2012010BD10B5054820
:10307000012101F0B9FBBFF35F8F08B1002010BD43
:10308000012010BD1C000020BFF35F8F014900200C
:10309000086070471C0000200449002008600449B3
:1030A0004FF48060C1F880017047000000A5025015
:1030B00004E000E003490120086003498002C1F8F0
:1030C0000001704700A5025004E000E070B500F177
:1030D0000806106815460C46202802D248F2145003
:1030E00070BDFFF7C3FF80B1FFF7E4FF2146304614
:1030F000FEF7E2FA0646FFF7CFFFFFF7C5FF3046BF
:1031000001F05CF9060003D004E048F2045070BD01
:10311000202028602021204601F09FFE304670BD0F
:1031200010B50830FEF7F8FABDE8104001F046B9D6
:103130002DE9F04700F108090E461446FFF796FF07
:10314000B8B1FFF7B7FF4FF480584546AC4200D8FE
:1031500025462A4631460E48FDF788F92A460C498D
:103160004846FEF7F3FA0700A4EB05042E4404D00A
:1031700005E048F20450BDE8F087002CE5D1FFF7E8
:103180008BFFFFF781FF3846BDE8F04701F016B925
:103190009005002070B50B4800240460BFF35F8FDA
:1031A000094D01202860FEF7A1FB01002C604FF0C3
:1031B000030004D0052901D148F2035070BD00205E
:1031C00070BD00001C00002000A502500149002035
:1031D0000860704700A502504360CA699A420DD347
:1031E0008A690260886918448861086F1844086712
:1031F000C869C01AC86100D00120704701F12802D7
:10320000026000208B67704770B50D460978002476
:103210000F2931D2DFE801F031083131300B0F30A6
:10322000300830313131310000F061FB25E02946B2
:1032300004F052FB0FE0064600F02EFC0146A87891
:103240000024814219D00106E9784FF0030004D52B
:1032500031B901210CE004460FE021B101290CD065
:103260000329F8D109E0304600F050FB0446002164
:10327000304605F0BDF800E00624204670BD000091
:103280002DE9F05FDFF83C968846097A89F800104E
:103290000168164605464FF0000A40F24532544692
:1032A0001F46A1F245304FF0020B914276D04ADC26
:1032B00040F22732A1F22730914270D027DC40F251
:1032C0001730A1F2173281426AD013DC4FF44572F5
:1032D000914274D007DCE9B3A1F54071123971D085
:1032E000012960D17EE0A1F54071153969D001292D
:1032F00059D19DE0092A71D004DC012A6FD0022A3D
:1033000051D1B9E00A2A6BD00F2A4CD1DFE00E2848
:1033100067D00EDC072864D006DC012879D00528A8
:1033200078D006283FD118E10C2874D00D283AD166
:1033300041E11538092836D2DFE800F0F735353598
:1033400035F6F5F4F300132871D00FDCA0F103007B
:10335000102800E02CE026D2DFE800F0F3F2F1F0D4
:10336000EF2525EEEDECEB2525EAE9E837280CD032
:103370000CDC292870D004DC14286ED0282812D147
:1033800015E22D286AD032280DD140E2442871D0B0
:1033900007DC3E286FD03F2805D159E254E1A1E077
:1033A0004EE04928F3D00020C5F800A0BDE8F09F0A
:1033B00008212971002F05D840F212300CE01DE0E1
:1033C00000E029E00EB1297931700B210124297127
:1033D000012F07D840F2133028600DE05AE03EE09C
:1033E00063E0C6E00EB12979315598F81410641CD9
:1033F0002971BC4202D32A600120D7E70EB1297996
:103400003155641C85F804B0BC4205D340F2153038
:10341000E2E774E096E0C3E00EB129793155641C0F
:1034200085F804B0BC4203D340F21630D4E79DE1E6
:103430000EB129793155641C85F804B0BC42CBD259
:103440000EB12879305598F81900641C2871BC42D7
:1034500005D34FF44670BFE7B4E193E1C5E10EB187
:1034600028793055641C85F804A0BC4204D340F28E
:103470001930B1E7FEE1E0E10EB12879305589F865
:1034800001A0641C08E209202871BC4202D34FF459
:103490004870A1E70EB1287930550420641C2871CA
:1034A000BC4202D340F2213096E70EB12879305564
:1034B00099F801104046641CFFF75CF9C9F8040054
:1034C00000782871BC4202D340F2263084E70EB166
:1034D00028793055641C85F804A0BC4202D340F220
:1034E000273079E70EB128793055D9F80400641CEB
:1034F000BC424078287102D34FF44A706CE70EB199
:1035000028793055D9F8040098F81410641C007814
:1035100081423AD185F804B0BC4213D34FF44B70CA
:103520005AE786E07AE06EE062E04FE012E106E101
:10353000FAE0EEE0E2E0D6E0CAE0BDE0B0E0A4E010
:1035400098E08CE00EB128793055641C85F804B001
:10355000BC4202D340F22D303EE70EB128793055FF
:1035600098F81900641C2871BC4202D340F22E3036
:1035700032E70EB12879305514F1010485F804A022
:10358000BC4223D34FF44F7026E798F816108142BF
:10359000F4D10A202871BC4202D340F233301BE739
:1035A0000EB128793055641C85F804A0BC4202D3C2
:1035B0004FF44D7010E70EB128793055641C85F832
:1035C00004A0BC42D5D340F2353005E70EB12879CE
:1035D0003055D9F8040098F81410641C0078814222
:1035E00075D105202871BC4202D340F24130F3E688
:1035F0000EB1287930552420641C2871BC4202D3B6
:1036000040F24230E8E60EB128793055641C85F866
:1036100004A0BC4202D340F24330DDE60EB128796B
:1036200030551020641C2871BC4202D34FF45170F5
:10363000D2E60EB1287930550120641C2871BC42B5
:1036400002D340F24530C7E60EB128793055052047
:10365000641C2871BC4202D34FF45270BCE60EB118
:10366000287930552420641C2871BC4202D340F2D2
:103670004930B1E60EB1287930550120641C28711B
:10368000BC4202D340F24A30A6E60EB1287930554A
:103690000320641C2871BC4202D340F24B309BE6ED
:1036A0000EB12879305598F81600641C2871BC4278
:1036B00002D34FF453708FE60EB1287930550420B1
:1036C000641C2871BC4203D340F24F3084E65DE0B5
:1036D0000EB1287930552420641C2871BC4202D3D5
:1036E0004FF4547078E60EB128793055641C85F893
:1036F00004B0BC4202D340F251306DE60EB12879DD
:103700003055641C85F804B0BC4202D340F25230FC
:1037100062E60EB1287930550520641C2871BC4240
:1037200002D340F2553057E60EB1287930552420A7
:10373000641C2871BC4202D340F256304CE60EB1F4
:10374000287930550620641C2871BC4202D340F20F
:10375000573041E60EB12879305598F81400641CB2
:103760002871BC4202D34FF4567035E60EB1287969
:10377000305598F81600641C2871BC4202D340F200
:10378000593029E60EB128793055641CD9F8041057
:103790004846497889F80210514689F803A073E039
:1037A00007202871BC4202D340F26D3014E60EB1FE
:1037B000287930550520641C2871BC4202D340F2A0
:1037C0006E3009E60EB12879305599F80310641C63
:1037D000D9F80400FEF7BBFFC9F80800007828718B
:1037E000BC4202D340F27230F6E50EB12879305572
:1037F000D9F8040098F81410641C0078814211D1A3
:1038000003202871BC4202D340F27730E4E50EB1C8
:1038100028793055641C40202871BC420DD340F2F9
:103820008330D9E598F816108142F4D185F804B0B8
:10383000BC42ECD34FF45F70CEE50EB12879305521
:10384000641C85F804A0BC4202D34FF46170C3E548
:103850000EB128793055D9F8040098F81410641C7A
:103860000078814222D110202871BC4202D340F25C
:103870008930B1E50EB128793055641C99F80310F0
:103880004846491C89F803108278C9B2914287D30F
:103890004178491C89F8011099F8011099F8000045
:1038A0008142FFF4F0AD40F2993095E598F816109A
:1038B0008142E3D185F804A0BC42DBD340F28E30D4
:1038C0008AE50000B000002008B1032070470868B6
:1038D00010F8081F202901D006207047D0F80210E8
:1038E000C160C1880182017A81740020704700683C
:1038F000002181830162816241678167C167C0F8ED
:10390000801000F130010167704700002DE9FC478D
:1039100004688146083400F0F8F807462F4800266E
:103920008068CDE90004E069B0B1D4F878804546FC
:10393000404500D205462A4604F12801A069FCF75B
:1039400095FD206F2844C4E91C60A8EB0500E066E3
:1039500060192830A06627E0206F60672667E6665A
:10396000216A304621B1626AA161C4E907202CE0D6
:10397000A06130E004F11802616A82E84300E26E5F
:103980001AB38A4215D3A36E0A461946FCF76EFD98
:10399000E16EE069091AE166A16E0144A166606703
:1039A0000021484604F024FD206A0028E2D1A661E7
:1039B00011E0A16EFCF75AFDE06E2067E169091A7B
:1039C000E161A1690818A06105D069463846FFF792
:1039D0003FF8BDE8FC870020FBE7000024880E00CC
:1039E0004360CA699A4204D38A6902600B67CB615B
:1039F00003E001F1280202608B670020704700009D
:103A000010B541B1022913D1BDE810400122094986
:103A10000948FEF77DBD07490122A1F1550002F0DA
:103A2000C5FF012203490448FEF772FD0028F2D0C9
:103A300010BD0000D138002090890E004268126845
:103A40001047000070B5084C050009D010342168FB
:103A5000002907D008682060496828468847F6E7AB
:103A60000834F4E770BD0000BC1B0020054A0121AA
:103A700020B1012805D19170FFF7E4BF51700020FB
:103A8000FAE77047BC1B00200249CA6B4260096C10
:103A900081607047EC16002010B50021FEF76AFE29
:103AA0000021FEF754FE007810BD40684968884246
:103AB00001D801207047002070470000F0B54FF09A
:103AC000FF3622B11268D24300230A4D0DE0324680
:103AD000FAE7C45C62400824D70700D037462F407D
:103AE00087EA5202641EF7D15B1C8B42F1D3D043AC
:103AF000F0BD00002083B8ED10B50121FEF73AFEBD
:103B00000021FEF724FE007810BD10B50121FEF75C
:103B100031FE0121FEF71BFE007810BDF0B51469DF
:103B200006468DB020681546271DE0B1022920D039
:103B30000A2000906B4609AA304603F013FC0028C7
:103B40000FD009A901A8009A03F0ACFA01AE96E8DB
:103B50000F0005AE86E80F00236869683A4605A89D
:103B600098470DB0F0BD0DB03046BDE8F04003F011
:103B70000DBB6946304603F09FFA0028F1D0236858
:103B800069683A46684698470028EAD002980028B3
:103B9000F5D1019870600120E3E753685B7813F07A
:103BA000C00303D0402B03D00020704700F002B8C0
:103BB000FFF7B4BF2DE9FF410B4651680646144696
:103BC0004878334D00F00F0210F0300055F82250C5
:103BD00006D0102806D0202808D0302856D13EE044
:103BE00022694DE061690120087047E0022B28D16D
:103BF000042A26D84FF0010869463046676903F069
:103C00005BFA00281AD009E00B79226913FB002225
:103C10006846A84770B13878401C3870029820B1C7
:103C2000616838784A799042EED3019870600298C2
:103C300060BB02E04FF00008F7E7404604B0BDE883
:103C4000F081D4E904300F79027817FB0233497907
:103C50008A421BD2521C02701A46616810E0087832
:103C60006169072A087009D1606801792069FCF749
:103C700025FC60682169806803F039FA226961686F
:103C800004B03046AC46BDE8F04160470020D5E7BF
:103C9000BC890E004169002901D0C06808477047FF
:103CA00070B52A4C054686B0207838B9284A0021DC
:103CB0002848FEF787FBE8BB01202070254C4FF415
:103CC0008046082D3FD2DFE805F00F232E3E3E044C
:103CD0003E0400F0A5FC68BB2068FEF7C1FB48BBB2
:103CE000304600F097FC2AE01A491422091D684664
:103CF000FCF7BCFB44F6CD4002900190FF204FF052
:103D0000A0418DF801000491684600F0F5FBE6E75C
:103D100042F26664204600F039FC06B02046BDE859
:103D2000704000F039BC40F6CD4500F079FC08B990
:103D3000294600E005E022681046FEF775FB0028E2
:103D400001D002F0CFFD06B070BD000008000020D9
:103D5000B93D0E0004850E0010B50446032806D0B8
:103D6000042C04D0062C0ED0072C04D10BE00749FC
:103D7000002000F0D9FD06480168002905D0204642
:103D8000BDE810400847FFF73BF910BD95440E0011
:103D90000C00002010B50446062802D1002001F0D6
:103DA0004FFB04480168002903D02046BDE81040BD
:103DB000084710BD2000002010B5024640F6CD4156
:103DC000FEF732FB08B102F08DFDBDE81040012086
:103DD000FFF728B90A46014610460A78082A0BD18F
:103DE0004288521E93B243800288002A06D0002BDC
:103DF00004D1428003220A7003F0E5BA70474FF401
:103E0000A07202EB810189B200F0B0BA0068D0F86C
:103E10000405704730B543791C4C44F8232042799F
:103E2000231D03EBC20212790AB1082030BD0268DB
:103E30000C88C2F8084590F904208978002A4FEAD6
:103E4000411106DA02F00F0202F1E02282F8141D9D
:103E500003E002F1E02282F8001490F9042001242A
:103E600002F01F0504FA05F15209920002F1E02266
:103E7000C2F88012C2F80011417903EBC1010C7144
:103E8000417943F83100002030BD0000EC000020F3
:103E900090F90400012100F01F02914040098000C8
:103EA00000F1E020C0F8001270470A46022100F03D
:103EB00054BA4FF4827100F059BA006801210160D0
:103EC000704700680121416070470000F8B5054661
:103ED00022F07F462A684FF480344FF4A0708C4063
:103EE00000EB81001F4680B2C2F808432A68C2F87E
:103EF00048432A680023135010580090286800EBAC
:103F00008101D1F84005C1F840652968D1F8041550
:103F1000401A20F07F40012803D10E494FF404607D
:103F200088472868C0F844432968D1F80405301A46
:103F300020F07F40020201D540F07F407A4290425B
:103F400003DD022801DC0D20F8BDC1F80443002088
:103F5000F8BD000041890E006FEA0061C90F61F3EE
:103F60001F1070470106044900D5903100F00F0082
:103F700001EB001070470000D01B00202DE9FC4130
:103F800080461F4615460E4600240D4800F019FCD9
:103F900038B11120BDE8FC8106EB043002F0D2F903
:103FA000641CAC42F8D1064800F005FCCDE900578E
:103FB000334600220221404600F0B4F90020E9E730
:103FC000FC00002010B504F085F88020FFF7CAFF40
:103FD000817B0124032902D00068002809D18020B8
:103FE000FFF7BAFF8440E143BDE81040014800F00C
:103FF000EBBB10BD54000020812002F027BA8220C4
:1040000002F024BA832002F021BA842002F01EBA02
:10401000852002F01BBA862002F018BA872002F031
:1040200015BA000038B5882504F054F82846FFF783
:1040300099FF817B0124032915D00068002811D144
:104040002846FFF789FF8440E1430C4800F0BCFBA1
:104050000B480A49806800900C398DF80250496875
:104060006846884738BD2846FFF776FF8440E1431D
:10407000BDE83840014800F0A7BB00005400002014
:10408000E0860E0038B504F025F80020FFF76AFF3F
:10409000817B0124032905D0006868B1BDE8384060
:1040A00001F07BBF0020FFF757FF8440E143BDE8EC
:1040B00038400A4800F088BB0020FFF74DFF8440DD
:1040C000E143064800F080FB05480449C0680C390C
:1040D000009049686846884738BD000054000020B9
:1040E000E0860E00012002F0CDB9022002F0CAB92C
:1040F000032002F0C7B9042002F0C4B9052002F081
:10410000C1B9062002F0BEB9072002F0BBB9000019
:1041100038B5082403F0DEFF2046FFF723FF817B3C
:10412000032915D00068002812D12046FFF714FF9C
:1041300001218140C943074800F046FB0648054974
:10414000406900900C398DF80240496868468847FC
:1041500038BD000054000020E0860E0070B5154800
:1041600004680460BFF36F8FBFF34F8FBFF36F8F8F
:10417000BFF34F8F01F02CFE38B10F48016921F0D9
:10418000011201F001111443016101266CB194FA8E
:10419000A4F0B0FA80F52846FEF70AFF06FA05F10A
:1041A0008C43294604F0F0F8F0E7BDE8704003F0D6
:1041B000A7BF00006C7402404800002010B5054CF9
:1041C000A078FFF7C9FE0146A078BDE8104004F0D2
:1041D000DBB8000048000020F8B51A4800681A4D06
:1041E000C6B2A878FFF7B8FE012404FA00F12889C6
:1041F000EA68C04380B21043014202D0A87804F0BC
:104200003BF806F08000A8700020FFF7A5FE04FA36
:1042100000F68020FFF7A0FE04FA00F006430A48EB
:10422000F1430C3000F0D0FA8020FFF795FE844077
:10423000A86804430548AC60006A00906968684655
:104240008847F8BD8074024048000020E0860E00D8
:1042500038B5002000900B480068ADF802008820B7
:10426000FFF77AFE012505FA00F40820FFF774FE37
:10427000054985402C43886804438C60496868463A
:10428000884738BD20750240480000207047000074
:10429000F8B518480568284602F03AF9BFF36F8F61
:1042A000BFF34F8F144E154CE80506D50120607002
:1042B000706A0090616868468847A8054FF000075B
:1042C00005D56770B06A00906168684688476805E0
:1042D0000ED5607800280BD067700949012008606E
:1042E000582002F027F9F06A009061686846884714
:1042F000F8BD000000740240E0860E004800002077
:1043000008750240054908B50020487088700448C7
:104310004068009049686846884708BD480000200A
:10432000E0860E002DE9F04387B00446DDE90E89F2
:1043300080681D4616460F4600280BD01821684697
:10434000FCF7BCF802A88DF8007080E86003A16853
:104350006846884707B0BDE8F0830368C3F8441394
:10436000002A02D00068C0F80413704708B500683E
:1043700042582AB10022425040580090012008BD06
:10438000002008BD0B2803D30B38C0B200F00AB8D8
:10439000704700000249002208780A707047000048
:1043A00024000020014908700B20704724000020E1
:1043B00001490120087070471500002010B50F4C0E
:1043C00048F20351031B48F21652A04211D007DCF9
:1043D00000280AD00A4BC01808D0012804D10BE0ED
:1043E0000A2B01D00D2B07D0104610BD48F201500A
:1043F00010BD48F2025010BD084610BD0202F00088
:1044000000FE0FFF2DE9F04781461D4616468846FF
:10441000494502D10020BDE8F087A8EB0900040B54
:1044200006F6FF704FF0000A070B00F06DFBA54287
:104430002AD22C4628E0A74202D8BA46354601E0E7
:10444000A246250300225146484600F03BFE0028C4
:10445000E1D1681E00F003002A1A002341464846B5
:10446000D21C00F041FE0028D5D10948A7EB0A076D
:10447000761B016BA94429440163A844002000F085
:1044800089FF5FEA000AC6D1002ED4D15046C2E7A8
:10449000EC160020FEF7B4FD014941600020704792
:1044A0004C890E0002480068002800D001207047A7
:1044B000FC0000200268134602E08A4204D0126821
:1044C000002AFAD10B600160704770B50546086894
:1044D0000C464A6886682846314602F029FD606825
:1044E000286104F10C00686170780221B1EB901F23
:1044F00001D1241D2C6170BD2DE9F04104464078A6
:10450000D8B3A178884238D9E078B0B3E068A0B3D6
:1045100054211B48FBF7D2FF1948142221460C30C6
:10452000FBF7A4FF164D0126174A6E70A078E178BC
:104530000844A88000202870E068A860287B85F8DF
:104540002000E068A86220696862FF2085F82100E9
:104550000C4805F12001E86201F11000074600F067
:104560006DF800280AD1AE70A078E1780844C1B295
:104570003846BDE8F04100F059B80720BDE8F081A9
:10458000981F002048890E00A5450E0001490861CA
:1045900070470000981F00200149486170470000E3
:1045A000981F002070B5194919480A68002A2ADCAA
:1045B00002464478D37B928864B1447BE51A9542E5
:1045C00006DC00224270848042690BE0521D0BE041
:1045D000D1180CE0847BE518954207D30122427084
:1045E00084800269002AF1D10A6001E0D11A818039
:1045F00001790748303000F019F8002805D0BDE8EF
:104600007040FDF759BEFF3AEEE770BDF80000209C
:10461000981F00200146014800F048B8C81F00203C
:10462000014800F059B80000C81F002082788A4273
:1046300001D207207047C1700020704770B58261B9
:10464000054608788E6828708868A8608868E860E1
:10465000486828624878A870C8680024114A214632
:10466000E861FDF7AFFE00281AD111E0F0070DD088
:104670002046202C02D24FF0A04102E00A4904F06B
:104680001F0001EB80000322C0F800277608641C9D
:10469000002EEBD1284602F0A6FD01202871002053
:1046A00070BD0000D1720E000003005070B50446CA
:1046B000022020710D462046E16002F094FDA068C2
:1046C0002843A06000202075A569A061204602F063
:1046D000FFFD0020A56170BD70B50446C06900688B
:1046E000FDF7BEFE0546204602F07DFD0DB12846D1
:1046F00070BD01202071002070BD000010B50022A7
:104700004FF48051104600F017F950B908480022C4
:10471000C0F57E2100F010F918B9064800F07AF9CA
:1047200008B102F0DFF800F0B0F8002010BD000082
:1047300000000E00A13C0E0010B531B1B2FBF3F445
:1047400003FB14241CB1092010BD0E2010BD016014
:104750000021416081608281C381084610BD70B52F
:104760000C460546FBF75AFD002802D02188286830
:10477000084470BD10B50A8849888A4203D1FBF706
:104780008FFD012010BD002010BD70B50C46054600
:10479000FBF769FD002802D061882868084470BDD5
:1047A00010B50A8849888A4203D1FBF753FD0120DE
:1047B00010BD002010BD002100F006B8002100F05F
:1047C00009B8012100F00BB808B56A46FBF7A3FD54
:1047D000009808BD08B56A46FBF79DFD08BD08B501
:1047E0006A46FBF78BFD08BD08B56A46FBF77AFD04
:1047F00008BD70B5044600252846FEF7C3FB2168B6
:104800006268086890420ED9401E08600178238AC9
:10481000E26801FB0325227A2168101AC0B20A79E6
:10482000824200D208710020FEF7AEFB284670BD20
:1048300070B505460C460020FEF7A4FBE868298AFF
:10484000201AB0FBF1F12A681068431C1360017054
:10485000BDE870400020FEF797BB10B530B1017A7B
:1048600042680368891AC9B21A6006E00E2010BDBA
:1048700003681A68541C1C601170491EC9B2F7D233
:10488000006800210171084610BD10B54FF0E0220C
:104890004FF0FF314FF48054C2F88011C2F88012FB
:1048A00000F052FC2046BDE8104000F001B80000C6
:1048B00070B505461A4888B0C0F58011002200F096
:1048C0003BF8EFF30580D5E90045C005C00D4FF07A
:1048D000FF364FF0000181F3148881F3108881F3D3
:1048E000118881F3138812D020220E496846FBF705
:1048F000BDFD203C2022694620460695FBF7B6FD0B
:10490000B21F31462046FBF785FC08B070BD08B0E9
:104910002A4631462046BDE87040FBF77BBC0000CC
:1049200000000E0024850E000A460146014800687A
:1049300003F090BA44850E0070B50B0502D1B0F5B6
:104940007F2F01D9072070BD0AB1062500E002259E
:10495000104A114B1468082C01D3042070BD03EBDE
:104960000416C6F80008C6F80418C6F80858641CEF
:10497000146003EB0414D4F8F0678642EAD1D4F84B
:10498000F4678E42E6D1D4F8F847AC42E2D1002079
:1049900070BD00001000002000E0014070B51A4D0D
:1049A0000024E86A2435012807D0A52808D0AA28C1
:1049B00009D0AC280AD0002070BDFDF759FC0BE0EF
:1049C00002F00EFE07E0FEF7FBFA05E002F008FE3B
:1049D00008B9FEF7F5FA0124284600F089FA0B49D8
:1049E000002008700A4800F0D5FC10B103252846C5
:1049F00070BD0125002CFAD0012000F03BFA002800
:104A0000F5D00225F3E70000EC1600201500002089
:104A1000B1430E0070B52D490860002000F092FCF3
:104A200000284DD1FFF7BAFF294C20B1012835D01D
:104A3000022845D11BE0002521680120C90302D5C9
:104A40000004206008E023490A6812F0A90F04D08E
:104A5000086800F056000860002000F00BFA40B132
:104A60002068C00705D100F063FC48BB2AE042F291
:104A7000107500F049F8184A20211820FDF78CFC29
:104A800008B1FDF719FC2068C00703D0206840F08A
:104A90000100206000F04AFB90B901E0FEF7B0FA97
:104AA0000E492846FFF740FF0D4800F029FB38B9B2
:104AB00000F018F8FDF750FC20BF40BF20BFF7E71B
:104AC000032070BDFFF7E1FEFAE700000C000020B4
:104AD00000040040200500404001002095440E00E5
:104AE000593D0E0010B501F031FD002803D0BDE89E
:104AF000104003F09BBC10BD0A46014601484068C7
:104B000003F0A8B944850E0070B5154D287800282B
:104B100025D101F01BFD012600B3124800684009B1
:104B200000EB4000840842F21070844201D2012060
:104B300000E00020687003F079FC687820B909482B
:104B400008300068C00703D007492046FFF7D4FFAC
:104B50004FF0E0214FF48030C1F800012E7070BD9D
:104B6000160000200405014069840E0000F1804019
:104B70000068002800D00120704708B500F180408F
:104B8000002101600068009008BD70B504460D4624
:104B90002022083000F056F9202205F1200104F10E
:104BA000280000F04FF9002070BD0000F0B599B06A
:104BB0000D461D491E9E944607460160202B00D3DA
:104BC00020231C461A46614611A800F03BF920221A
:104BD000314601A800F004F914480121FFF704FE52
:104BE000BFF35F8F002618B148F2045019B0F0BD32
:104BF000FEF760FA11AB01AA05F1080138460094EE
:104C0000FCF746FD0446FEF747FABFF35F8F0748FF
:104C100006602000EAD00649CC4202D148F2425058
:104C2000E4E748F21650E1E7DD55AABB1C0000207E
:104C30007CF70FFF70B516460C46054600F0E9F804
:104C400000280ED1AA791946304600F0EFF8002866
:104C500007D131462046FFF798FF002801D10149CE
:104C6000216070BD7052464D2DE9F84F6C460E46DE
:104C7000D4E90A7905469A4690461649304600F02E
:104C8000BCF80028A54611D1706849464079420019
:104C9000384600F0CBF80028A54607D1B8F100004F
:104CA00001D02DB107E0A54648F21050BDE8F88FBD
:104CB000AAB06D464DB182B00246534631462846F1
:104CC0000097FFF773FFA546F0E748F21550A54699
:104CD000ECE700007052464D2DE9F0411D46DDE93C
:104CE00006871646044600F02DF800280DD12A4606
:104CF0003146204600F03CF8002806D13A464146AD
:104D00002046BDE8F04100F002B8BDE8F08170B582
:104D100015460E46044603F079FB002807D13EB144
:104D200060682968C268914205D248F2145070BD8B
:104D300048F2135070BD83682A4631462046BDE8CC
:104D40007040184710B550B161B141600968044620
:104D50008847002802D105482060002010BD48F295
:104D6000015010BD48F2105010BD00006E52464870
:104D700070B515460E46044603F048FB00280BD1DB
:104D800046B155B160682A46314643682046BDE8C1
:104D90007040184748F2105070BD002070BD0000F0
:104DA0002DE9F0410B480C4D0C4F401BC60801206B
:104DB0003870002406E000BF55F834008047002812
:104DC00005D1641CB442F7D3022038700020BDE83E
:104DD000F0810000048B0E00FC8A0E0018000020F9
:104DE00070B514460D46064600F02CF82919301906
:104DF0002246BDE8704000F025B828B1006888421E
:104E000005D048F24050704748F2105070470020DB
:104E1000704728B139B10022C1E90020104670471F
:104E200048F21050704748F21350704720B1914239
:104E300005D048F21150704748F2105070470020DA
:104E4000704700000244521E04E000BF11F8013B0D
:104E500002F801398242F9D270470144491E05E047
:104E600002780B7800F8013B01F801298142F7D262
:104E70007047000010B50A4C216A01290BD160B1BE
:104E8000E06950B100F010F80022A169FEF716FEAB
:104E9000E169814201D0002010BD012010BD000059
:104EA000EC160020AFF300804FF44050074A4168F1
:104EB000914207D18068411EC1F30B01401A00F6F0
:104EC000FF7070474FF4805070470000DBE5B15130
:104ED00000B5FFF7E9FF054989690A18401E084433
:104EE000C0F30B00101A00F6FF7000BDEC16002096
:104EF000002101604160816001480163704700004A
:104F0000EC1600202DE9F0479946294C294F904690
:104F10000E460546002301215BB1012B12D0022B66
:104F20001FD00020381AA0F54050A8421CD2012200
:104F30001BE0FFF7CDFFB8F1000F10D0216A012967
:104F4000F0D00CE0FFF7B0FFB9F1000F05D14FF43E
:104F50004051194A4968914201D00121E2E70021FC
:104F6000E0E74FF48050DDE7002242EA0600884384
:104F700005D0022B03D25B1CDBB2022BCBD912B1C2
:104F80000420BDE8F087022B02D300F033FA00E0E2
:104F90001BB107481830FFF7ABFF0020206101204C
:104FA000606103482430FFF7A3FF00206562E8E753
:104FB000EC16002000000E00DBE5B15170B5044690
:104FC0000078092811D2DFE800F010051011251033
:104FD000381013000D461D490320C96888476069D1
:104FE00000F0A8FAFFF7CEF9687070BD084628E017
:104FF0000D46A18A206900F079FAFFF7C3F96870BD
:105000002846FEF741FDE1680029EED02069BDE8A1
:10501000704008470C460D490831081F00F0A8FAF7
:10502000FFF7B0F960700128DFD1002000F0B2F97D
:105030000028DAD00A20607070BD08464FF48071F5
:10504000C160BDE87040FEF71FBD000028000020D1
:1050500070B51A4A05780124936C092D2CD2DFE82B
:1050600005F02B052B0B0F2B252B080001F084FBE3
:1050700022E001F0F7FB1FE08B60106D48601BE041
:10508000D2E91454566C2C1BA64203D00820487059
:10509000012411E00024556554642146D36401F0D5
:1050A000A5FB07490420C968884705E08B60106D9F
:1050B00048604FF48050C860204670BDEC16002058
:1050C0002800002013460A460146014801F0A0B816
:1050D0001401002002490022024801F0C0B800007B
:1050E00058890E001401002008B5009313460A46A3
:1050F0000146024801F0E4F808BD00001401002058
:10510000084910B508600020FEF744FE064800F08C
:10511000B1F9002804D1BDE81040034800F02AB8D6
:1051200010BD000020000020953D0E0000207047BB
:105130001FB58908002201AB009283E8070068468A
:1051400018DF04B010BD00001FB5094A4FF48054A9
:105150001069D2E90612CDE90004CDE902126846D1
:1051600018DF072802D160040460002004B010BDDD
:1051700088860E0010B5040011D00020FFF7AAFFAA
:1051800000280BD100F090F900F078FA48B10949F5
:10519000081F00F0EDF9012803D0032010BD0720FF
:1051A00010BD04480838C4600020FFF7FBF8002059
:1051B00010BD000030000020816819B1024A18219A
:1051C000FDF77CB807207047CD510E00AFF300808B
:1051D00030B587B00446182231496846FBF746F9D6
:1051E00020788DF8000022782E4D0D2A55D2DFE868
:1051F00002F0072D472D2D542D252D21091C2900A6
:10520000012018E04FF08050D0F800110191D0F843
:1052100004110291D0F80C1189020491D0F81011F8
:1052200089020391006905902AE06946204601F051
:1052300071FB25E0207C8DF8040021E0208AADF888
:1052400004001DE0E9680720884719E02046694608
:10525000062A01D0012A01D1027C2A702A78012A6B
:1052600007D0022A08D00020287005208DF8010000
:1052700006E0FFF7A3FE03E0FFF7EAFE00280AD0EE
:10528000D4E90112684690479DF80100012802D038
:10529000E9680520884707B030BD0220E6E7000036
:1052A000C0860E0028000020F0B5521E87B00E46C2
:1052B00005464C1C97B218221C496846FBF7D6F8E5
:1052C00030788DF8000001950C2826D2DFE800F038
:1052D000250D062525250A1E18222522208828802E
:1052E00068801AE02078049017E028886880207889
:1052F00004902179D4F8010061F31F6005900CE05F
:105300000494ADF81470A868039009E0A889ADF87A
:10531000100002E020788DF81000A9682046884728
:105320006846FFF749FF07B0F0BD000078890E001E
:1053300000207047002258210148FEF7BFBB000043
:10534000F016002070B5FFF7C5FEE0B94FF4AE755A
:105350002A460E490E48FBF789F80D4C2068401C80
:1053600006D0FFF7E7FF2168814201D1002070BD20
:1053700029460748FBF7A2F801206060002000F0F2
:1053800009F80028F3D0032070BD000000F00F00E2
:10539000EC16002070B504464FF4AE752A4612494B
:1053A0001248FBF79DF830B1002201210E48FFF7AB
:1053B00089FEB0B904E00CB10020A047002070BD08
:1053C000FFF7B8FF09492A460860A1F5AE70FBF760
:1053D0004DF823462A4606490348FFF785FE002874
:1053E000EDD0032070BD000000F00F00EC1600208F
:1053F0009015002010B54FF440540C496068884265
:1054000013D1002304220A49201DFFF76DFE002856
:105410000BD10848016A012901D10021016281698B
:10542000A2681144A1F58051816110BDDBE5B15145
:10543000D8860E00EC1600204FF480507047000014
:105440002DE9F04107460948094D401BC6080020D8
:10545000044607E005EBC400416838468847002849
:1054600002D1641CB442F5D3BDE8F0810C8B0E0070
:10547000048B0E002DE9F04107460948094D401BF9
:10548000C6080020044606E055F834103846884720
:10549000002802D1641CB442F6D3BDE8F0810000BC
:1054A0000C8B0E00048B0E0070B50B4C0B4DA06BDB
:1054B00030B102F0ADFB18B1606A08B1012000E024
:1054C00000202870FFF76CFCBDE870404023044AC0
:1054D00004490548FFF7AEBBEC1600203800002059
:1054E000C4840E00F41A00204C850E002DE9F04112
:1054F0000F4C07460D46E06BA26B01264119914205
:1055000001D9032610E00A492A465C31084439468D
:10551000FAF7ACFFE06B064A2844E06340322946C4
:105520003846FEF7CBFA20643046BDE8F081000033
:10553000EC16002070B505004FF0010404D0B5F55D
:10554000807F03D904240CE003240AE006490020EC
:10555000064E08702021306306F13800FAF7AEFFDE
:10556000B563204670BD000038000020EC16002016
:105570002DE9F0413D4C88460746D4E90E0101254E
:10558000814201D008256DE0394E307830B1FFF707
:105590009FFC3860606AC8F8000063E002F038FBE6
:1055A00000285ED0334890F89C1009B9017871B397
:1055B000041D00213960C8F8001090F89C300A469C
:1055C0002BB12C4C90F83811A03404F1990294F8C6
:1055D000590002F071FA0546012843D1201D00F060
:1055E000C5F8054601283DD130700F2594F85900C3
:1055F000002618B994F86810012906D0C10708D010
:1056000094F85A10012903D003E0E66E0EE028E07A
:10561000E66D80070AD594F86000012806D1164986
:10562000606EC1F57E21884215D80644D6B1241D8E
:1056300001252046C8F8006002F03CFC034694F8BF
:105640005500002108B1012800D101210022304677
:10565000FFF758FC08B1042504E0FFF739FC386077
:1056600000E005252846BDE8F0810000EC1600208A
:10567000380000204818002000000E000148007883
:1056800070470000380000202DE9FE4F06463348E1
:10569000324C884690F89C00012708B1A43400E001
:1056A000083420200B46029002A92D48CDE90001C4
:1056B00032462C49A0F59A70FFF70EFB2A4D4FF0A9
:1056C000000A30B9202204F16F012548FAF708FFDB
:1056D00008B117272DE094F8550050B100F00101F2
:1056E000C0F3400289463346204601F095FDB0B133
:1056F00011E00120C5F820A0E862204602F0DAFBA4
:1057000008B9FFF777FE94F88F0010B194F8900075
:1057100008B96068A860A86CC5E909800DE0052794
:10572000B9F1000F05D0FFF787FEB04201D1FFF7B6
:1057300061FE0D482430FFF7DBFB0B482021383099
:10574000FAF7BCFE0848FF22F4215C30FAF7AFFEFE
:10575000C5F830A03846AE64BDE8FE8F481800207A
:105760009C1B002058850E00EC160020F0B590F828
:1057700054100122A9B390F8551029B1012903D082
:10578000022901D0032942D190F86D30032B01D0BA
:1057900014223DE090F88F3013B190F8903033BB75
:1057A000037AF3B1C368342B01D0112230E04FF4F7
:1057B0004056184C7368A34214D1057CC5B14369A7
:1057C000B3B100F11404002308E000BF54F82370C3
:1057D000B6F80CC067450BD05B1CDBB2AB42F5D30F
:1057E00004E014E0037C1BB143690BB112220FE00B
:1057F00003784BB161B101290AD007494068C968F3
:10580000884205D8102203E0012901D001B10F22FE
:105810001046F0BDDBE5B151EC16002010B50020BC
:10582000FDF7B0FB074C6068401E6060606818B907
:1058300000F0BAFE00206070BDE810400020FDF7C7
:10584000A3BB0000BC1B002070B5104D0446687857
:1058500038B114B16168002088470020FDF792FB41
:105860000CE00020FDF78EFB24B1084821460830EB
:10587000FEF720FE686808B900F08AFE6868401CE0
:105880006860BDE870400020FDF77EBBBC1B0020B7
:1058900070B50A4C207808B185250CE00020A06086
:1058A00060602061E060064800F094FE054600F06C
:1058B00055FE01202070284670BD0000BC1B002052
:1058C0006D3A0E0010B500B9044800F0C7FE00287C
:1058D00002D1034A0121117010BD0000DC860E00C8
:1058E0004400002010B5044600F007F8204600F000
:1058F00033FF00F02AFF002010BD10B500F01EFF9E
:10590000BDE8104000F032BF03490248C1F804036B
:1059100070470000041480010070024030B54C68EC
:105920009C4204D2002545600968016007E043609D
:105930000D68E41A05604C600868184408609A42D3
:1059400002D10CB1012030BD002030BD10B500F0F7
:1059500091FB0949D1F80403C1F808030749002065
:105960000860BFF36F8FBFF34F8F02F0B3FB0449A2
:105970000120087010BD0000007002400075024058
:10598000480000202DE9F0414FF40068404600F047
:10599000BFFD00F0F7F9394E394D49F2753450B179
:1059A0000020FDF7EFFA29680320002952D030606B
:1059B0000020FDF7E9FA0020FDF7E4FA2968304FEE
:1059C000C020143700294AD038600020FDF7DCFAE7
:1059D0002C4901200860BFF36F8FBFF34F8F2A4916
:1059E00008680005FCD5404600F092FD0020FDF758
:1059F000C9FA2868A846002580B33D600020FDF75D
:105A0000C3FA00F0BFF950B10020FDF7BBFAD8F897
:105A10000010404669B335600020FDF7B5FA1B4918
:105A200040F2E37008604020091D0860BFF36F8FEB
:105A3000BFF34F8F134980201C310860144C40F293
:105A4000FF10C4E9020502F045FBA570022020709A
:105A5000BDE8F0812C6030602C60A9E703E02C6089
:105A600038602C60B1E7C8F800403D60C8F80040DD
:105A7000C4E7046035600460CEE7000014ED064022
:105A800000EC0640007502400074024000780240BD
:105A90004800002002F0F0BB10B5044602F0ECFB19
:105AA00021064FF0010004F00F0200FA02F001D5C8
:105AB000084901E00749091D0A6882430A60BFF3EB
:105AC0006F8FBFF34F8F204600F0D6F80249C1F820
:105AD000080310BD107502400070024005490860BF
